:020000040800F2
:1000000000800120A90F0008310F0008370F0008F9
:100010003D0F0008430F0008490F000800000000D2
:100020000000000000000000000000004F0F00086A
:100030005D0F0008000000006B0F0008790F00083A
:10004000F90F0008F90F0008F90F0008F90F000870
:10005000F90F0008F90F0008F90F0008F90F000860
:10006000F90F0008F90F0008F90F0008F90F000850
:10007000F90F0008F90F0008F90F0008F90F000840
:10008000F90F0008F90F0008F90F00080000000040
:10009000000000000000000000000000F90F000850
:1000A000F90F0008F90F0008F90F0008F90F000810
:1000B000F90F0008F90F0008F90F0008F90F000800
:1000C000F90F0008F90F0008F90F0008F90F0008F0
:1000D000F90F0008F90F0008F90F000800000000F0
:1000E000F90F0008F90F0008F90F000800000000E0
:1000F000000000000000000000000000F90F0008F0
:1001000000000000F90F0008F90F0008F90F0008BF
:1001100000000000000000000000000000000000DF
:10012000F90F0008F90F0008F90F0008F90F00088F
:10013000F90F0008000000000000000000000000AF
:10014000000000000000000000000000F90F00089F
:10015000F90F0008F90F0008F90F0008F90F00085F
:10016000F90F0008F90F000800000000000000006F
:10017000000000000000000000000000000000007F
:1001800000000000F90F000800000000000000005F
:04019000F90F00085B
:1001940010B5054C237833B9044B13B10448AFF3BD
:1001A40000800123237010BD140000200000000013
:1001B400E82F000808B5034B1BB103490348AFF30C
:1001C400008008BD0000000018000020E82F00088F
:1001D40053B94AB9002908BF00281CBF4FF0FF31AA
:1001E4004FF0FF3000F074B9ADF1080C6DE904CEA6
:1001F40000F006F8DDF804E0DDE9022304B07047FE
:100204002DE9F047089D04468E46002B4DD18A42C5
:10021400944669D9B2FA82F252B101FA02F3C2F1F8
:10022400200120FA01F10CFA02FC41EA030E944089
:100234004FEA1C48210CBEFBF8F61FFA8CF708FBAA
:1002440016E341EA034306FB07F199420AD91CEB82
:10025400030306F1FF3080F01F81994240F21C81B4
:10026400023E63445B1AA4B2B3FBF8F008FB1033FC
:1002740044EA034400FB07F7A7420AD91CEB040431
:1002840000F1FF3380F00A81A74240F20781644401
:10029400023840EA0640E41B00261DB1D440002386
:1002A400C5E900433146BDE8F0878B4209D9002DEA
:1002B40000F0EF800026C5E9000130463146BDE874
:1002C400F087B3FA83F6002E4AD18B4202D38242DE
:1002D40000F2F980841A61EB030301209E46002D8D
:1002E400E0D0C5E9004EDDE702B9FFDEB2FA82F2E2
:1002F400002A40F09280A1EB0C014FEA1C471FFA40
:100304008CFE0126200CB1FBF7F307FB131140EA26
:1003140001410EFB03F0884208D91CEB010103F1F3
:10032400FF3802D2884200F2CB804346091AA4B2B5
:10033400B1FBF7F007FB101144EA01440EFB00FE89
:10034400A64508D91CEB040400F1FF3102D2A645EE
:1003540000F2BB800846A4EB0E0440EA03409CE78D
:10036400C6F12007B34022FA07FC4CEA030C20FA3A
:1003740007F401FA06F31C43F9404FEA1C4900FA5A
:1003840006F3B1FBF9F8200C1FFA8CFE09FB1811D7
:1003940040EA014108FB0EF0884202FA06F20BD94A
:1003A4001CEB010108F1FF3A80F08880884240F29A
:1003B4008580A8F102086144091AA4B2B1FBF9F0DE
:1003C40009FB101144EA014100FB0EFE8E4508D9D9
:1003D4001CEB010100F1FF346CD28E456AD902385E
:1003E400614440EA0840A0FB0294A1EB0E01A14243
:1003F400C846A64656D353D05DB1B3EB080261EBB1
:100404000E0101FA07F722FA06F3F1401F43C5E98A
:10041400007100263146BDE8F087C2F12003D840C0
:100424000CFA02FC21FA03F3914001434FEA1C4702
:100434001FFA8CFEB3FBF7F007FB10360B0C43EAF4
:10044400064300FB0EF69E4204FA02F408D91CEBA4
:10045400030300F1FF382FD29E422DD902386344A2
:100464009B1B89B2B3FBF7F607FB163341EA034142
:1004740006FB0EF38B4208D91CEB010106F1FF3891
:1004840016D28B4214D9023E6144C91A46EA004688
:1004940038E72E46284605E70646E3E61846F8E61A
:1004A4004B45A9D2B9EB020864EB0C0E0138A3E763
:1004B4004646EAE7204694E74046D1E7D0467BE744
:1004C400023B614432E7304609E76444023842E7BC
:1004D400704700BF80B500AF00F08EFD00F024F837
:1004E40000F004F900F0D8F800F07EF800F0AAF863
:1004F40000F070F90A210A2000F0D6FA0122074917
:10050400074800F067FB1E210A2000F0CDFA012203
:100514000249044800F05EFBFEE700BF0000002033
:10052400003000080C30000880B594B000AF07F12B
:10053400200330220021184602F04CFD07F10C0381
:1005440000221A605A609A60DA601A610023BB6064
:10055400234B1B6C224A43F080531364204B1B6CC7
:1005640003F08053BB60BB6800237B601D4B1B689A
:1005740023F440431B4A43F400431360194B1B68A4
:1005840003F440437B607B6802233B620123FB62EC
:1005940010233B630023BB6307F12003184601F0DB
:1005A4009BFD0346002B01D000F00EF90F23FB60E6
:1005B40000233B6100237B614FF48053BB61002324
:1005C400FB6107F10C030021184601F0FDFF03460F
:1005D400002B01D000F0F8F800BF5037BD4680BDB5
:1005E400003802400070004080B500AF124B134A3F
:1005F4001A60114B124A5A600F4B00229A600E4B3C
:100604000022DA600C4B4FF480421A610A4B00223C
:100614005A61094B00229A61074B0022DA61064BAA
:1006240000221A62044800F0DDFF0346002B01D0CB
:1006340000F0CAF800BF80BD300000200054004024
:10064400801A060080B500AF114B124A1A60104B95
:100654004FF4E1325A600E4B00229A600C4B002298
:10066400DA600B4B00221A61094B0C225A61084BC9
:1006740000229A61064B0022DA61054802F0C4F9AF
:100684000346002B01D000F09FF800BF80BD00BFDF
:10069400840000200010014080B500AF114B124AC5
:1006A4001A60104B4FF4E1325A600E4B00229A60EC
:1006B4000C4B0022DA600B4B00221A61094B0C220E
:1006C4005A61084B00229A61064B0022DA61054800
:1006D40002F09AF90346002B01D000F075F800BF30
:1006E40080BD00BFC80000200044004080B58AB02F
:1006F40000AF07F1140300221A605A609A60DA60AE
:100704001A6100233B612D4B1B6B2C4A43F00403FD
:1007140013632A4B1B6B03F004033B613B69002307
:10072400FB60264B1B6B254A43F080031363234B6A
:100734001B6B03F08003FB60FB680023BB601F4B53
:100744001B6B1E4A43F0010313631C4B1B6B03F02A
:100754000103BB60BB6800237B60184B1B6B174A0B
:1007640043F002031363154B1B6B03F002037B601E
:100774007B6800222021124800F01AFF4FF4005336
:100784007B614FF40413BB610023FB6107F1140385
:1007940019460C4800F088FD20237B610123BB61CE
:1007A4000023FB6100233B6207F11403194604484C
:1007B40000F07AFD00BF2837BD4680BD00380240F6
:1007C400000002400008024080B400AF72B600BFCF
:1007D400FEE7000080B582B000AF00F021FA44F6D5
:1007E4002063012278215B4801F03EF90346002B87
:1007F40001D00023A9E040F6C4137B6002E07B68CB
:10080400013B7B607B68002BF9D1AE22002178206C
:1008140000F082FA20220021782000F07DFA1022D4
:100824000021782000F078FAB0220021782000F02E
:1008340073FAC8220021782000F06EFA0022002109
:10084400782000F069FA10220021782000F064FA80
:1008540040220021782000F05FFA812200217820D4
:1008640000F05AFAFF220021782000F055FAA12264
:100874000021782000F050FAA6220021782000F010
:100884004BFAA8220021782000F046FA3F220021EA
:10089400782000F041FAA4220021782000F03CFAEC
:1008A400D3220021782000F037FA0022002178209A
:1008B40000F032FAD5220021782000F02DFAF0223F
:1008C4000021782000F028FAD9220021782000F0B5
:1008D40023FA22220021782000F01EFADA220021D5
:1008E400782000F019FA12220021782000F014FA7E
:1008F400DB220021782000F00FFA2022002178204A
:1009040000F00AFA8D220021782000F005FA142262
:100914000021782000F000FAAF220021782000F0B6
:10092400FBF92E220021782000F0F6F9002000F0D7
:1009340043F800F013F8084B00221A80064B0022FB
:100944005A80054B01225A71012318460837BD46C7
:1009540080BD00BF300000200C05002080B582B0AF
:1009640000AF0023FB711DE0FB79503BDBB21A465C
:100974000021782000F0D0F900220021782000F036
:10098400CBF910220021782000F0C6F9FB79DB01B5
:10099400084A1A4480234021782000F057F9FB7953
:1009A4000133FB71FB79072BDED900BF00BF083789
:1009B400BD4680BD0C01002080B582B000AF034667
:1009C400FB71FB79002B01D1002300E0FF234FF4DE
:1009D40080621946034802F0FDFA00BF0837BD469D
:1009E40080BD00BF0C01002080B483B000AF03467B
:1009F400FB800B46BB801346FB70FB887F2B48D8DB
:100A0400BB883F2B45D8264B1B79002B06D0FB789F
:100A1400002B0CBF01230023DBB2FB70FB78012BFE
:100A24001AD1FA88BB88DB0898B20346DB01134469
:100A34001C4AD35C5AB2BB8803F00703012101FAB4
:100A440003F35BB2134359B2FA880346DB01134440
:100A5400C9B2144AD1541DE0FA88BB88DB0898B2A5
:100A64000346DB0113440F4AD35C5AB2BB8803F03C
:100A74000703012101FA03F35BB2DB435BB21340CA
:100A840059B2FA880346DB011344C9B2054AD1546A
:100A940000E000BF0C37BD465DF8047B704700BF23
:100AA4000C0500200C01002080B483B000AF034685
:100AB4000A46FB801346BB80054AFB881380044A20
:100AC400BB88538000BF0C37BD465DF8047B70477C
:100AD4000C05002080B586B000AF03463960FB7179
:100AE4001346BB713A4B1B881A463B681B78134468
:100AF4007F2B07DC364B5B881A463B685B781344D4
:100B04003F2B01DD00235EE000237B614BE03B686B
:100B14005A68FB79203B3968497801FB03F319468D
:100B24007B690B445B0013441B88FB6000233B611F
:100B340030E0FA683B6902FA03F303F40043002B44
:100B440010D0234B1A883B699BB2134498B2204BB4
:100B54005A887B699BB213449BB2BA791946FFF752
:100B640043FF14E01A4B1A883B699BB2134498B2B2
:100B7400174B5A887B699BB2134499B2BB79002BFB
:100B84000CBF01230023DBB21A46FFF72DFF3B699C
:100B940001333B613B681B781A463B699342C8D3D7
:100BA4007B6901337B613B685B781A467B699342BE
:100BB400ADD3074B1A883B681B789BB213449AB297
:100BC400034B1A80FB7918461837BD4680BD00BF19
:100BD4000C05002080B584B000AFF860B9601346FE
:100BE400FB7112E0FB681B78FA79B9681846FFF7C5
:100BF40071FF03461A46FB681B789A4202D0FB68D1
:100C04001B7808E0FB680133FB60FB681B78002B52
:100C1400E8D1FB681B7818461037BD4680BD00003C
:100C240080B483B000AF084B7B6002E07B68013B7B
:100C34007B607B68002BF9D100BF00BF0C37BD4639
:100C44005DF8047B704700BF90D0030090B5C7B037
:100C540002AF0446084607F58871A1F588710A6059
:100C6400194607F58873A3F2091322461A7007F58B
:100C74008873A3F5857302461A7007F58873A3F584
:100C840086730A461A8007F58873A3F5827307F5FD
:100C94008872A2F5857212781A70002387F80F31D2
:100CA40015E097F80F3107F58872A2F5887212687B
:100CB4001A4497F80F310133117807F58872A2F5B9
:100CC4008272D15497F80F31013387F80F3197F8B6
:100CD4000F319BB207F58872A2F5867212889A4288
:100CE400DFD807F58873A3F209131B7899B207F5C7
:100CF4008873A3F586731B8801339BB207F10C023A
:100D04000A200090034800F0B1FD00BF07F58A7780
:100D1400BD4690BD3000002080B586B002AF0346CA
:100D2400FB710B46BB7113467B71BB793B737B79BB
:100D34007B73FB7999B207F10C020A230093022317
:100D4400034800F093FD00BF1037BD4680BD00BFCF
:100D54003000002080B582B000AF00237B60104BD0
:100D64005B6C0F4A43F4804353640D4B5B6C03F498
:100D740080437B607B6800233B60094B1B6C084A03
:100D840043F080531364064B1B6C03F080533B60A9
:100D94003B68072000F054FA00BF0837BD4680BD09
:100DA4000038024080B58AB000AF786007F11403C0
:100DB40000221A605A609A60DA601A617B681B68C4
:100DC400194A93422BD100233B61184B1B6B174AE2
:100DD40043F002031363154B1B6B03F002033B61E7
:100DE4003B69C0237B611223BB610023FB610323A6
:100DF4003B6204237B6207F1140319460C4800F09C
:100E040053FA0023FB60094B1B6C084A43F400139C
:100E14001364064B1B6C03F40013FB60FB6800BFF8
:100E24002837BD4680BD00BF005400400038024052
:100E34000004024080B58CB000AF786007F11C0359
:100E440000221A605A609A60DA601A617B681B6833
:100E5400324A93422DD10023BB61314B5B6C304A43
:100E640043F0100353642E4B5B6C03F01003BB611F
:100E7400BB6900237B612A4B1B6B294A43F00103A6
:100E84001363274B1B6B03F001037B617B694FF4F6
:100E9400C063FB6102233B6200237B620323BB62CA
:100EA4000723FB6207F11C0319461E4800F0FCF9F6
:100EB40030E07B681B681C4A93422BD100233B61C2
:100EC400174B1B6C164A43F400331364144B1B6C0E
:100ED40003F400333B613B690023FB60104B1B6B45
:100EE4000F4A43F0010313630D4B1B6B03F0010323
:100EF400FB60FB680C23FB6102233B6200237B62E3
:100F04000023BB620723FB6207F11C031946054853
:100F140000F0CAF900BF3037BD4680BD0010014063
:100F240000380240000002400044004080B400AF9A
:100F3400FEE780B400AFFEE780B400AFFEE780B404
:100F440000AFFEE780B400AFFEE780B400AF00BF9F
:100F5400BD465DF8047B704780B400AF00BFBD465A
:100F64005DF8047B704780B400AF00BFBD465DF8F8
:100F7400047B704780B500AF00F090F800BF80BDDF
:100F840080B400AF064BD3F88830054A43F47003AD
:100F9400C2F8883000BFBD465DF8047B704700BFCF
:100FA40000ED00E0DFF834D00D480E490E4A00236E
:100FB40002E0D458C4500433C4188C42F9D30B4A09
:100FC4000B4C002301E013600432A242FBD3FFF771
:100FD400D7FF01F0DBFFFFF77DFA704700800120A7
:100FE40000000020140000209C3D00081400002094
:100FF40018050020FEE7000080B500AF0E4B1B680B
:101004000D4A43F4007313600B4B1B680A4A43F404
:1010140080631360084B1B68074A43F480731360B2
:10102400032000F00DF9002000F008F8FFF792FE0D
:101034000023184680BD00BF003C024080B582B04A
:1010440000AF7860124B1A68124B1B7819464FF4A4
:101054007A73B3FBF1F3B2FBF3F3184600F017F91C
:101064000346002B01D001230EE07B680F2B0AD826
:10107400002279684FF0FF3000F0EDF8064A7B68F3
:101084001360002300E0012318460837BD4680BDE5
:1010940008000020100000200C00002080B400AFE5
:1010A400064B1B781A46064B1B681344044A13600C
:1010B40000BFBD465DF8047B704700BF10000020F0
:1010C4001405002080B400AF034B1B681846BD46CE
:1010D4005DF8047B704700BF1405002080B485B020
:1010E40000AF78607B6803F00703FB600C4BDB68A0
:1010F400BB60BA684FF6FF031340BB60FB681A027B
:10110400BB68134343F0BF6343F40033BB60044A3A
:10111400BB68D36000BF1437BD465DF8047B7047DD
:1011240000ED00E080B400AF044BDB681B0A03F061
:1011340007031846BD465DF8047B704700ED00E0E8
:1011440080B483B000AF03463960FB7197F9073070
:10115400002B0ADB3B68DAB20C4997F9073012011D
:10116400D2B20B4483F800230AE03B68DAB20849A0
:10117400FB7903F00F03043B1201D2B20B441A763D
:1011840000BF0C37BD465DF8047B704700E100E00A
:1011940000ED00E080B489B000AFF860B9607A6017
:1011A400FB6803F00703FB61FB69C3F10703042B2E
:1011B40028BF0423BB61FB690433062B02D9FB69F6
:1011C400033B00E000237B614FF0FF32BB6902FA6E
:1011D40003F3DA43BB681A407B699A404FF0FF314E
:1011E4007B6901FA03F3D9437B680B401343184628
:1011F4002437BD465DF8047B7047000080B582B09B
:1012040000AF78607B68013BB3F1807F01D3012399
:101214000FE00A4A7B68013B53600F214FF0FF3017
:10122400FFF78EFF054B00229A60044B07221A60D9
:10123400002318460837BD4680BD00BF10E000E01B
:1012440080B582B000AF78607868FFF747FF00BFD1
:101254000837BD4680BD80B586B000AF0346B9608F
:101264007A60FB7300237B61FFF75CFF78617A6827
:10127400B9687869FFF78EFF024697F90F30114677
:101284001846FFF75DFF00BF1837BD4680BD80B527
:1012940082B000AF78607868FFF7B0FF0346184665
:1012A4000837BD4680BD000080B489B000AF7860C7
:1012B400396000237B6100233B610023BB61002371
:1012C400FB6159E10122FB6902FA03F37B613B688C
:1012D4001B687A6913403B613A697B699A4240F022
:1012E40048813B685B6803F00303012B05D03B682E
:1012F4005B6803F00303022B30D17B689B68BB61FE
:10130400FB695B00032202FA03F3DB43BA6913406F
:10131400BB613B68DA68FB695B0002FA03F3BA69F4
:101324001343BB617B68BA699A607B685B68BB6185
:101334000122FB6902FA03F3DB43BA691340BB6180
:101344003B685B681B0903F00102FB6902FA03F3C3
:10135400BA691343BB617B68BA695A603B685B68CE
:1013640003F00303032B17D07B68DB68BB61FB69C5
:101374005B00032202FA03F3DB43BA691340BB6147
:101384003B689A68FB695B0002FA03F3BA6913438A
:10139400BB617B68BA69DA603B685B6803F003038E
:1013A400022B23D1FB69DA087B68083253F8223018
:1013B400BB61FB6903F007039B000F2202FA03F3EE
:1013C400DB43BA691340BB613B681A69FB6903F0EC
:1013D40007039B0002FA03F3BA691343BB61FB6979
:1013E400DA087B680832B96943F822107B681B6805
:1013F400BB61FB695B00032202FA03F3DB43BA69B6
:101404001340BB613B685B6803F00302FB695B004C
:1014140002FA03F3BA691343BB617B68BA691A60C1
:101424003B685B6803F44033002B00F0A280002388
:10143400FB60574B5B6C564A43F480435364544BF4
:101444005B6C03F48043FB60FB68524AFB699B08B6
:10145400023352F82330BB61FB6903F003039B00A2
:101464000F2202FA03F3DB43BA691340BB617B68C2
:10147400494A934219D07B68484A934213D07B6807
:10148400474A93420DD07B68464A934207D07B6813
:10149400454A934201D1042308E0072306E00323CD
:1014A40004E0022302E0012300E00023FA6902F0D1
:1014B400030292009340BA691343BB613549FB6947
:1014C4009B080233BA6941F82320384B9B68BB61FF
:1014D4003B69DB43BA691340BB613B685B6803F457
:1014E4008013002B03D0BA693B691343BB612F4AB5
:1014F400BB6993602D4BDB68BB613B69DB43BA6915
:101504001340BB613B685B6803F40013002B03D0FA
:10151400BA693B691343BB61244ABB69D360234B5B
:101524005B68BB613B69DB43BA691340BB613B68E1
:101534005B6803F40033002B03D0BA693B6913439F
:10154400BB611A4ABB695360184B1B68BB613B699A
:10155400DB43BA691340BB613B685B6803F48033C7
:10156400002B03D0BA693B691343BB610F4ABB69C3
:101574001360FB690133FB61FB690F2B7FF6A2AE9D
:1015840000BF00BF2437BD465DF8047B704700BF31
:1015940000380240003801400000024000040240CC
:1015A40000080240000C024000100240003C0140D0
:1015B40080B483B000AF78600B467B8013467B70A9
:1015C4007B78002B03D07A887B689A6103E07B8860
:1015D4001A047B689A6100BF0C37BD465DF8047B32
:1015E4007047000080B584B000AF78607B68002B42
:1015F40001D101232BE17B6893F83D30DBB2002B52
:1016040006D17B68002283F83C207868FFF7CAFB88
:101614007B68242283F83D207B681B681A687B68FA
:101624001B6822F001021A607B681B681A687B68D9
:101634001B6842F400421A607B681B681A687B6866
:101644001B6822F400421A6001F0B6F9F8607B6866
:101654005B68814A934207D8FB68804A934294BFEF
:1016640001230023DBB206E0FB687D4A934294BF6A
:1016740001230023DBB2002B01D00123E7E0FB6848
:10168400784AA2FB03239B0CBB607B681B685B68E6
:1016940023F03F017B681B68BA680A435A607B6881
:1016A4001B681B6A23F03F017B685B686A4A9342AC
:1016B40002D8BB68013309E0BB684FF4967202FBA1
:1016C40003F3694AA2FB03239B0901337A68126876
:1016D4000B4313627B681B68DB6923F44F4222F0DF
:1016E400FF027B685B685C498B4219D8FB68591E12
:1016F4007B685B685B00B1FBF3F3591C40F6FC7339
:101704000B40002B0AD0FB68591E7B685B685B00AA
:10171400B1FBF3F30133C3F30B0351E004234FE0B4
:101724007B689B68002B11D1FB68581E7B68596845
:101734000B465B000B44B0FBF3F30133C3F30B0321
:10174400002B0CBF01230023DBB212E0FB68581E00
:101754007B6859680B469B000B4499000B44B0FB13
:10176400F3F30133C3F30B03002B0CBF012300235A
:10177400DBB2002B01D0012322E07B689B68002BA5
:101784000ED1FB68581E7B6859680B465B000B44FE
:10179400B0FBF3F30133C3F30B0343F400430FE053
:1017A400FB68581E7B6859680B469B000B449900E4
:1017B4000B44B0FBF3F30133C3F30B0343F4404393
:1017C400796809681343CB617B681B681B6823F045
:1017D400C0017B68DA697B681B6A1A437B681B68F3
:1017E4000A431A607B681B689B6823F4034323F055
:1017F400FF037A6811697A68D26811437A681268BB
:101804000B4393607B681B68DB6823F0FF017B68F4
:101814005A697B689B691A437B681B680A43DA60D0
:101824007B681B681A687B681B6842F001021A60B7
:101834007B6800221A647B68202283F83D207B6841
:1018440000221A637B68002283F83E200023184696
:101854001037BD4680BD00BFA08601007F841E00F6
:10186400FF083D0083DE1B43D34D621080B588B072
:1018740002AFF8607A601A460B467B8113463B81BF
:10188400FFF720FC7861FB6893F83D30DBB2202B36
:1018940040F0E0807B690093192301227049F868C5
:1018A40000F092FA0346002B01D00223D3E0FB6838
:1018B40093F83C30012B01D10223CCE0FB680122D8
:1018C40083F83C20FB681B681B6803F00103012BB1
:1018D40007D0FB681B681A68FB681B6842F00102AA
:1018E4001A60FB681B681A68FB681B6822F40062B4
:1018F4001A60FB68212283F83D20FB68102283F8DC
:101904003E20FB6800221A64FB687A685A62FB680E
:101914003A895A85FB685B8D9AB2FB681A85FB6825
:10192400504ADA6279897B693A6AF86800F0CAF940
:101934000346002B01D001238DE000233B61FB68AB
:101944001B685B693B61FB681B689B693B613B6986
:1019540066E07A69396AF86800F00CFB0346002BEC
:101964000DD0FB681B6C042B07D1FB681B681A683D
:10197400FB681B6842F400721A6001236BE0FB6889
:101984005B6A1A78FB681B681A61FB685B6A5A1CFD
:10199400FB685A62FB685B8D9BB2013B9AB2FB68A1
:1019A4005A85FB681B8D013B9AB2FB681A85FB685C
:1019B4001B685B6903F00403042B1BD1FB681B8DBC
:1019C400002B17D0FB685B6A1A78FB681B681A61E6
:1019D400FB685B6A5A1CFB685A62FB685B8D9BB2AE
:1019E400013B9AB2FB685A85FB681B8D013B9AB296
:1019F400FB681A857A69396AF86800F0FCFA0346CC
:101A0400002B0DD0FB681B6C042B07D1FB681B68F3
:101A14001A68FB681B6842F400721A6001231AE01A
:101A2400FB681B8D002B94D1FB681B681A68FB684C
:101A34001B6842F400721A60FB68202283F83D2080
:101A4400FB68002283F83E20FB68002283F83C20D8
:101A5400002300E0022318461837BD4680BD00BFAE
:101A6400020010000000FFFF80B58AB002AFF860EA
:101A74007A603B600B467B81FFF724FBF86100230F
:101A8400BB61FB6893F83D30DBB2202B40F0118141
:101A9400FB690093192301228849F86800F094F93E
:101AA4000346002B01D0022304E1FB6893F83C3089
:101AB400012B01D10223FDE0FB68012283F83C20C5
:101AC400FB681B681B6803F00103012B07D0FB684C
:101AD4001B681A68FB681B6842F001021A60FB6805
:101AE4001B681A68FB681B6822F400621A60FB68B2
:101AF400242283F83D20FB6800221A64FB68704AA4
:101B0400DA62FB681B681A68FB681B6842F480721F
:101B14001A60FB6900933B6800224FF00111F868DA
:101B240000F052F90346002B0DD0FB681B681B68BC
:101B340003F48073B3F5807F03D1FB684FF4007224
:101B44001A640323B6E07B89DBB21A46FB681B6880
:101B540002F0FE021A61FFF7B5FAF861FB681B6830
:101B64005B6903F00203022B0CBF01230023DBB2E9
:101B7400FB75FB681B685B6903F48063B3F5806FD6
:101B84000CBF01230023DBB2BB7525E0FFF79AFAF3
:101B94000246FB69D31A3A689A4202D33B68002B87
:101BA40003D1FB68A02283F83D20FB681B685B69B6
:101BB40003F00203022B0CBF01230023DBB2FB75ED
:101BC400FB681B685B6903F48063B3F5806F0CBF2B
:101BD40001230023DBB2BB75FB6893F83D30DBB215
:101BE400A02B05D0FB7D002B02D1BB7D002BCDD0DB
:101BF400FB68202283F83D20FB681B685B6903F0C7
:101C04000203022B29D1FB681B681A68FB681B6856
:101C140042F400721A6000233B61FB681B685B6935
:101C24003B61FB681B689B693B613B69FB690093F3
:101C3400192301222149F86800F0C6F80346002B55
:101C440001D0012336E0FB68202283F83D20FB68A5
:101C5400002283F83C2000232CE0FB681B681A68F0
:101C6400FB681B6842F400721A60FB681B686FF41F
:101C740080625A61FB690093192301220F49F868B5
:101C840000F0A2F80346002B01D0012312E0BB6947
:101C94000133BB61BA697B689A42FFF432AFFB68D7
:101CA400202283F83D20FB68002283F83C20012396
:101CB40000E0022318462037BD4680BD0200100014
:101CC4000000FFFF80B588B002AFF8607A603B6027
:101CD4000B467B81FB68DB6A7B617B69082B06D042
:101CE4007B69012B03D07B6913F5803F08D1FB6826
:101CF4001B681A68FB681B6842F480721A600BE068
:101D0400FB681B6B122B07D1FB681B681A68FB6806
:101D14001B6842F480721A603B6800937B6800225F
:101D24004FF00111F86800F04FF80346002B0DD076
:101D3400FB681B681B6803F48073B3F5807F03D1D1
:101D4400FB684FF400721A64032335E0FB681B69D7
:101D5400B3F5804F08D17B89DBB21A46FB681B6858
:101D640002F0FE021A611BE07B89DB11DBB203F097
:101D74000603DBB263F00F03DAB2FB681B681A6177
:101D84003B687A680E49F86800F075F80346002B42
:101D940001D0012310E07B89DAB2FB681B681A6169
:101DA4003B687A680749F86800F065F80346002B39
:101DB40001D0012300E0002318461837BD4680BD3A
:101DC400080001000200010080B584B000AFF86093
:101DD400B9603B601346FB7125E03B68B3F1FF3FFC
:101DE40021D0FFF76FF90246BB69D31A3A689A42C9
:101DF40002D33B68002B16D1FB6800221A63FB68F0
:101E0400202283F83D20FB68002283F83E20FB68F3
:101E14001B6C43F02002FB681A64FB68002283F801
:101E24003C20012323E0BB681B0CDBB2012B0DD14A
:101E3400FB681B685B69DA43BB6813409BB2002BE9
:101E44000CBF01230023DBB21A460CE0FB681B68BD
:101E54009B69DA43BB6813409BB2002B0CBF012380
:101E64000023DBB21A46FB799A42B6D00023184607
:101E74001037BD4680BD80B584B000AFF860B9604E
:101E84007A603B6051E0FB681B685B6903F4806324
:101E9400B3F5806F23D1FB681B681A68FB681B6865
:101EA40042F400721A60FB681B686FF480625A6126
:101EB400FB6800221A63FB68202283F83D20FB683C
:101EC400002283F83E20FB681B6C43F00402FB688D
:101ED4001A64FB68002283F83C20012346E07B68F7
:101EE400B3F1FF3F21D0FFF7EDF802463B68D31A68
:101EF4007A689A4202D37B68002B16D1FB680022D1
:101F04001A63FB68202283F83D20FB68002283F8D3
:101F14003E20FB681B6C43F02002FB681A64FB68DC
:101F2400002283F83C20012320E0BB681B0CDBB2B9
:101F3400012B0CD1FB681B685B69DA43BB68134057
:101F44009BB2002B14BF01230023DBB20BE0FB6820
:101F54001B689B69DA43BB6813409BB2002B14BF18
:101F640001230023DBB2002B8DD100231846103748
:101F7400BD4680BD80B584B000AFF860B9607A60BA
:101F84002DE0F86800F078F80346002B01D0012317
:101F94002DE0BB68B3F1FF3F21D0FFF793F8024671
:101FA4007B68D31ABA689A4202D3BB68002B16D155
:101FB400FB6800221A63FB68202283F83D20FB683B
:101FC400002283F83E20FB681B6C43F02002FB6870
:101FD4001A64FB68002283F83C20012307E0FB68B5
:101FE4001B685B6903F08003802BCAD10023184669
:101FF4001037BD4680BD80B584B000AFF860B960CD
:102004007A602DE0F86800F037F80346002B01D021
:1020140001232DE0BB68B3F1FF3F21D0FFF752F855
:1020240002467B68D31ABA689A4202D3BB68002B73
:1020340016D1FB6800221A63FB68202283F83D2036
:10204400FB68002283F83E20FB681B6C43F02002EF
:10205400FB681A64FB68002283F83C20012307E034
:10206400FB681B685B6903F00403042BCAD10023DB
:1020740018461037BD4680BD80B483B000AF786089
:102084007B681B685B6903F48063B3F5806F1BD1C5
:102094007B681B686FF480625A617B6800221A6354
:1020A4007B68202283F83D207B68002283F83E2051
:1020B4007B681B6C43F004027B681A647B68002213
:1020C40083F83C20012300E0002318460C37BD466A
:1020D4005DF8047B7047000080B586B000AF78607F
:1020E4007B68002B01D1012367E27B681B6803F046
:1020F4000103002B75D0884B9B6803F00C03042B61
:102104000CD0854B9B6803F00C03082B12D1824B37
:102114005B6803F48003B3F5800F0BD17E4B1B681F
:1021240003F40033002B5BD07B685B68002B57D132
:10213400012342E27B685B68B3F5803F06D1764BAE
:102144001B68754A43F4803313601DE07B685B6849
:10215400B3F5A02F0CD1704B1B686F4A43F4802356
:1021640013606D4B1B686C4A43F4803313600BE0BF
:10217400694B1B68684A23F480331360664B1B6801
:10218400654A23F4802313607B685B68002B13D0BB
:10219400FEF798FF386108E0FEF794FF02463B69BA
:1021A400D31A642B01D9032307E25B4B1B6803F4A6
:1021B4000033002BF0D014E0FEF784FF386108E010
:1021C400FEF780FF02463B69D31A642B01D903232F
:1021D400F3E1514B1B6803F40033002BF0D100E012
:1021E40000BF7B681B6803F00203002B63D04A4BDB
:1021F4009B6803F00C03002B0BD0474B9B6803F048
:102204000C03082B1CD1444B5B6803F48003002BA4
:1022140016D1414B1B6803F00203002B05D07B68E9
:10222400DB68012B01D00123C7E13B4B1B6823F082
:10223400F8027B681B69DB00374913430B603AE003
:102244007B68DB68002B20D0344B01221A60FEF738
:1022540039FF386108E0FEF735FF02463B69D31ABF
:10226400022B01D90323A8E12B4B1B6803F00203C3
:10227400002BF0D0284B1B6823F0F8027B681B6905
:10228400DB00254913430B6015E0244B00221A6040
:10229400FEF718FF386108E0FEF714FF02463B69B9
:1022A400D31A022B01D9032387E11B4B1B6803F0CC
:1022B4000203002BF0D17B681B6803F00803002B9A
:1022C40036D07B685B69002B16D0154B01221A604F
:1022D400FEF7F8FE386108E0FEF7F4FE02463B69BB
:1022E400D31A022B01D9032367E10B4B5B6F03F075
:1022F4000203002BF0D01BE0094B00221A60FEF70A
:10230400E1FE38610EE0FEF7DDFE02463B69D31ABA
:10231400022B07D9032350E1003802400000474252
:10232400800E4742884B5B6F03F00203002BEAD117
:102334007B681B6803F00403002B00F097800023E4
:10234400FB75814B1B6C03F08053002B0FD10023D2
:10235400BB607D4B1B6C7C4A43F0805313647A4B07
:102364001B6C03F08053BB60BB680123FB75774B88
:102374001B6803F48073002B18D1744B1B68734AD9
:1023840043F480731360FEF79DFE386108E0FEF7A6
:1023940099FE02463B69D31A022B01D903230CE1AF
:1023A4006A4B1B6803F48073002BF0D07B689B6836
:1023B400012B06D1644B1B6F634A43F0010313677F
:1023C4001CE07B689B68052B0CD15F4B1B6F5E4A3E
:1023D40043F0040313675C4B1B6F5B4A43F0010338
:1023E40013670BE0584B1B6F574A23F00103136725
:1023F400554B1B6F544A23F0040313677B689B6897
:10240400002B15D0FEF75EFE38610AE0FEF75AFE97
:1024140002463B69D31A41F28832934201D903231D
:10242400CBE0494B1B6F03F00203002BEED014E00A
:10243400FEF748FE38610AE0FEF744FE02463B69B7
:10244400D31A41F28832934201D90323B5E03E4BBB
:102454001B6F03F00203002BEED1FB7D012B05D192
:10246400394B1B6C384A23F0805313647B689B6997
:10247400002B00F0A180344B9B6803F00C03082B65
:102484005CD07B689B69022B41D1314B00221A60DE
:10249400FEF718FE386108E0FEF714FE02463B69B9
:1024A400D31A022B01D9032387E0274B1B6803F0BF
:1024B4000073002BF0D17B68DA697B681B6A1A43CE
:1024C4007B685B6A9B011A437B689B6A5B08013BE0
:1024D4001B041A437B68DB6A1B061B4913434B60CE
:1024E4001B4B01221A60FEF7EDFD386108E0FEF790
:1024F400E9FD02463B69D31A022B01D903235CE0B0
:10250400114B1B6803F00073002BF0D054E0104B08
:1025140000221A60FEF7D6FD386108E0FEF7D2FD0E
:1025240002463B69D31A022B01D9032345E0064B2B
:102534001B6803F00073002BF0D13DE07B689B69BE
:10254400012B07D1012338E000380240007000401D
:10255400600047421B4B5B68FB607B689B69012BF7
:1025640028D0FB6803F480027B68DB699A4221D19E
:10257400FB6803F03F027B681B6A9A421AD1FA682F
:1025840047F6C07313407A68526A9201934211D19C
:10259400FB6803F440327B689B6A5B08013B1B04C5
:1025A4009A4207D1FB6803F070627B68DB6A1B0602
:1025B4009A4201D0012300E0002318461837BD4693
:1025C40080BD00BF0038024080B584B000AF7860A1
:1025D40039607B68002B01D10123CCE0684B1B6878
:1025E40003F007033A689A420CD9654B3A68D2B2B1
:1025F4001A70634B1B6803F007033A689A4201D0D0
:102604000123B8E07B681B6803F00203002B20D091
:102614007B681B6803F00403002B05D0594B9B68AF
:10262400584A43F4E05393607B681B6803F0080343
:10263400002B05D0534B9B68524A43F4604393608C
:10264400504B9B6823F0F0027B689B684D49134311
:102654008B607B681B6803F00103002B44D07B680C
:102664005B68012B07D1474B1B6803F40033002B35
:1026740019D101237FE07B685B68022B03D07B6860
:102684005B68032B07D13F4B1B6803F00073002BDF
:1026940009D101236FE03B4B1B6803F00203002BBD
:1026A40001D1012367E0374B9B6823F003027B6869
:1026B4005B68344913438B60FEF704FDF8600AE05D
:1026C400FEF700FD0246FB68D31A41F288329342BA
:1026D40001D903234FE02B4B9B6803F00C027B686A
:1026E4005B689B009A42EBD1254B1B6803F0070300
:1026F4003A689A420CD2224B3A68D2B21A70204BF2
:102704001B6803F007033A689A4201D0012332E0C0
:102714007B681B6803F00403002B08D0194B9B68EB
:1027240023F4E0527B68DB68164913438B607B68B3
:102734001B6803F00803002B09D0124B9B6823F499
:1027440060427B681B69DB000E4913438B6000F019
:1027540021F802460B4B9B681B0903F00F030A493F
:10276400CB5C22FA03F3094A1360094B1B68184631
:10277400FEF764FC002318461037BD4680BD00BF39
:10278400003C024000380240743D0008080000206C
:102794000C0000202DE9B04F94B000AF00237B64FF
:1027A4000023FB6400233B640023BB64794B9B68D8
:1027B40003F00C03082B0DD0082B00F2E180002B52
:1027C40002D0042B03D0DBE0734BBB64DBE0734B20
:1027D400BB64D8E06F4B5B6803F03F037B646D4BD5
:1027E4005B6803F48003002B63D06A4B5B689B092E
:1027F4000022BB63FA63BB6BC3F308033B63002390
:102804007B63D7E90C4522462B464FF000004FF07E
:102814000001590141EAD261500102460B462146AA
:10282400511A3961294663EB01037B614FF00002C1
:102834004FF00003D7E904AB59468B01514643EAF4
:10284400916351468A015146B2EB0108594663EB44
:1028540001094FF000024FF000034FEAC90343EAB5
:1028640058734FEAC80290469946234618EB03036F
:10287400BB602B4649EB0303FB604FF000024FF0B3
:102884000003D7E9024529464B02214643EAD153C6
:1028940021464A02104619467B6C0022BB62FA624A
:1028A400D7E90A23FDF794FC02460B461346FB6462
:1028B40058E0384B5B689B09002218461146C0F368
:1028C40008033B6200237B62D7E9088942464B46F2
:1028D4004FF000004FF00001590141EAD26150016C
:1028E40002460B464146B2EB010A494663EB010B33
:1028F4004FF000024FF000034FEA8B1343EA9A6350
:102904004FEA8A12B2EB0A0463EB0B054FF00002A4
:102914004FF00003EB0043EA5473E20014461D46F3
:102924004346E3183B604B4645EB03037B604FF0A3
:1029340000024FF00003D7E9004529468B022146E7
:1029440043EA915321468A02104619467B6C0022C1
:10295400BB61FA61D7E90623FDF73AFC02460B4650
:102964001346FB640B4B5B681B0C03F0030301333E
:102974005B003B64FA6C3B6CB2FBF3F3BB6402E0B8
:10298400054BBB6400BFBB6C18465037BD46BDE861
:10299400B08F00BF003802400024F40000127A0017
:1029A40080B400AF034B1B681846BD465DF8047B3A
:1029B400704700BF0800002080B500AFFFF7F0FFAC
:1029C4000246054B9B689B0A03F007030349CB5C53
:1029D40022FA03F3184680BD00380240843D000803
:1029E40080B500AFFFF7DCFF0246054B9B685B0B2D
:1029F40003F007030349CB5C22FA03F3184680BDB6
:102A040000380240843D000880B582B000AF786091
:102A14007B68002B01D101233FE07B6893F83D30B4
:102A2400DBB2002B06D17B68002283F83C20786857
:102A3400FEF700FA7B68242283F83D207B681B683C
:102A4400DA687B681B6822F40052DA60786800F068
:102A540029F87B681B681A697B681B6822F490421A
:102A64001A617B681B685A697B681B6822F02A021A
:102A74005A617B681B68DA687B681B6842F4005201
:102A8400DA607B6800221A647B68202283F83D2088
:102A94007B68202283F83E20002318460837BD4671
:102AA40080BD00002DE9B04FC0B000AFC7F8F400FE
:102AB400D7F8F4301B681B6923F44050D7F8F4307E
:102AC400D968D7F8F4301A6840EA01031361D7F8DB
:102AD400F4309A68D7F8F4301B691A43D7F8F43005
:102AE4005B691A43D7F8F430DB691343C7F8F8304D
:102AF400D7F8F4301B68DB6823F4164121F00C018D
:102B0400D7F8F4301A68D7F8F8300B43D360D7F805
:102B1400F4301B685B6923F44070D7F8F43099698A
:102B2400D7F8F4301A6840EA01035361D7F8F43057
:102B34001A688F4B9A4205D0D7F8F4301A688D4B37
:102B44009A4204D1FFF74CFFC7F8FC0003E0FFF7FB
:102B540033FFC7F8FC00D7F8F430DB69B3F5004F56
:102B640040F00C81D7F8FC300022C7F8E830C7F8F1
:102B7400EC20D7E93A4522462B469118B9655B41CA
:102B8400FB65D7E91623214612EB0108294643EBDE
:102B940001094FF000024FF000034FEAC90343EA72
:102BA40058734FEAC80290469946234618EB03032C
:102BB400C7F8E0302B4649EB0303C7F8E430D7F8F5
:102BC400F4305B680022C7F8D830C7F8DC20D7E9B6
:102BD40036120B46DB183B65134642EB03037B6559
:102BE400D7E91423D7E93801FDF7F2FA02460B4678
:102BF400614BA3FB02235B091C01D7F8FC300022C4
:102C0400C7F8D030C7F8D420D7E9348942464B46B8
:102C14009118B9645B41FB64D7E91223414612EB76
:102C2400010A494643EB010B4FF000024FF0000349
:102C34004FEACB0343EA5A734FEACA0292469B46D1
:102C440043461AEB0303C7F8C8304B464BEB030368
:102C5400C7F8CC30D7F8F4305B680022C7F8C0302E
:102C6400C7F8C420D7E930120B46DB183B6413467F
:102C740042EB03037B64D7E91023D7E93201FDF764
:102C8400A7FA02460B4611463B4BA3FB01235B0903
:102C9400642202FB03F3CB1ADB0003F13202364B4E
:102CA400A3FB02235B095B0003F4F8731C44D7F80D
:102CB400FC300022C7F8B830C7F8BC20D7E92E8909
:102CC40042464B469118B9635B41FB63D7E90E2337
:102CD40041465118396349464B417B634FF000022A
:102CE4004FF00003D7E90CAB5946CB00514643EAF9
:102CF40051735146CA0010461946034642469B1872
:102D0400C7F8B0304B460A4642EB0303C7F8B43069
:102D1400D7F8F4305B680022C7F8A830C7F8AC20B5
:102D2400D7E92A120B46DB18BB62134642EB0303B6
:102D3400FB62D7E90A23D7E92C01FDF749FA0246D9
:102D44000B460D4BA3FB02135B09642101FB03F348
:102D5400D31ADB003233084AA2FB03235B0903F0D6
:102D64000702D7F8F4301B6822449A6005E100BFDB
:102D740000100140001401401F85EB51D7F8FC30CE
:102D84000022C7F8A030C7F8A420D7E92889424612
:102D94004B46911839625B417B62D7E9082341466F
:102DA4005418494643EB01054FF000024FF000036D
:102DB400EB0043EA5473E20014461D464346E3180D
:102DC400C7F898304B4645EB0303C7F89C30D7F857
:102DD400F4305B680022C7F89030C7F894204FF0B5
:102DE40000024FF00003D7E9244529468B00214611
:102DF40043EA917321468A00D7E92601FDF7E8F9F1
:102E040002460B46604BA3FB02235B091C01D7F867
:102E1400FC300022C7F88830C7F88C20D7E9228913
:102E240042464B469118B9615B41FB61D7E90623E1
:102E340041465118396149464B417B614FF00002CC
:102E44004FF00003D7E904AB5946CB00514643EA9F
:102E540051735146CA0010461946034642469B1810
:102E6400C7F880304B460A4642EB0303C7F8843068
:102E7400D7F8F4305B680022BB67FA674FF00002B2
:102E84004FF00003D7E91E8949468B00414643EAC7
:102E9400917341468A00D7E92001FDF799F902466A
:102EA4000B46394BA3FB02135B09642101FB03F3BB
:102EB400D31A1B013233344AA2FB03235B0903F008
:102EC400F0031C44D7F8FC3000223B677A67D7E94B
:102ED4001C8942464B469118B9605B41FB60D7E9B7
:102EE400022341465118396049464B417B604FF0FB
:102EF40000024FF00003D7E900AB5946CB0051461E
:102F040043EA51735146CA001046194603464246E5
:102F14009B18BB664B460A4642EB0303FB66D7F895
:102F2400F4305B6800223B667A664FF000024FF093
:102F34000003D7E9188949468B00414643EA917357
:102F440041468A00D7E91A01FDF742F902460B46C9
:102F54000D4BA3FB02135B09642101FB03F3D31A9A
:102F64001B013233084AA2FB03235B0903F00F025F
:102F7400D7F8F4301B6822449A6000BF07F58077C5
:102F8400BD46BDE8B08F00BF1F85EB5170B50D4D38
:102F94000D4C641BA4100026A64209D10B4D0C4C09
:102FA40000F020F8641BA4100026A64205D170BDD1
:102FB40055F8043B98470136EEE755F8043B98472B
:102FC4000136F2E7943D0008943D0008943D000862
:102FD400983D000802440346934200D1704703F829
:102FE400011BF9E7F8B500BFF8BC08BC9E46704762
:0C2FF400F8B500BFF8BC08BC9E46704752
:10300000686F6C612073746D33320000496E7374A5
:103010007220476F646F0000000000000000000095
:1030200000000000000000000000000000000000A0
:103030000000000000000000000000000000000C84
:10304000000C000C000C000C000C000C000C000C20
:10305000000C000C0000000C000C00000000000040
:103060000000001B001B001B001B001B00000000D9
:103070000000000000000000000000000000000050
:103080000000000000008019801980198019C07F9D
:10309000C07F80190033C07FC07F0033003300330E
:1030A00000330000000000000000001E003F80759B
:1030B00080650074003C001E000780058065806507
:1030C0008075003F001E0004000400000000007036
:1030D00000D840D8C0D880D900730006000C801BEF
:1030E000C036C066C046C006800300000000000075
:1030F0000000001E003F003300330033001E000CB0
:10310000C03CC066806380618063C03E801C00005C
:10311000000000000000000C000C000C000C000C73
:10312000000000000000000000000000000000009F
:103130000000000000000000800000010003000605
:1031400000060004000C000C000C000C000C000C2D
:1031500000040006000600030001800000200010AB
:103160000018000C000C0004000600060006000613
:10317000000600060004000C000C001800100020DF
:103180000000000C002D003F001E00330000000076
:10319000000000000000000000000000000000002F
:1031A00000000000000000000000000C000C000CFB
:1031B000000CC0FFC0FF000C000C000C000C000055
:1031C00000000000000000000000000000000000FF
:1031D00000000000000000000000000000000000EF
:1031E0000000000C000C00040004000800000000B7
:1031F0000000000000000000000000000000001EB1
:10320000001E0000000000000000000000000000A0
:1032100000000000000000000000000000000000AE
:1032200000000000000000000000000C000C000086
:103230000000000000000003000300030006000679
:1032400000060006000C000C000C000C0018001812
:1032500000180000000000000000001E003F0033C6
:10326000806180618061806D806D8061806180613E
:103270000033003F001E00000000000000000006B8
:10328000000E001E0036002600060006000600069E
:103290000006000600060006000600000000000010
:1032A0000000001E003F8073806180618001000388
:1032B0000006000C001800300060807F807F000056
:1032C000000000000000001C003E006300630003DB
:1032D000000E000E00038001800180618073003FBA
:1032E000001E00000000000000000006000E000E9E
:1032F000001E001E0016003600360066807F807FAC
:103300000006000600060000000000000000007F2C
:10331000007F006000600060006E007F80638001BD
:10332000800180618073003F001E000000000000EB
:103330000000001E003F803380610060006E007F4F
:1033400080738061806180618033003F001E0000D7
:10335000000000000000807F807F800100030003E8
:1033600000060006000C000C000C000800180018F5
:1033700000180000000000000000001E003F8063F5
:10338000806180610021001E003F8061806180615A
:103390008061003F001E0000000000000000001ED1
:1033A000003F00738061806180618073803F801D79
:1033B000800180610073003F001E000000000000DB
:1033C00000000000000000000000000C000C0000E5
:1033D00000000000000000000000000C000C0000D5
:1033E00000000000000000000000000000000000DD
:1033F000000C000C00000000000000000000000CA9
:10340000000C0004000400080000000000000000A0
:1034100080008003000E003800600038000E80033A
:10342000800000000000000000000000000000001C
:10343000000000000000807F807F00000000807F8F
:10344000807F00000000000000000000000000007D
:10345000000000000000000000400070001C000799
:1034600080010007001C0070004000000000000008
:10347000000000000000001F803FC071C060C0005D
:10348000C00180030007000E000C000C0000000CBF
:10349000000C0000000000000000001E003F803112
:1034A00080718063806F806D806D806F8067006049
:1034B0000032003E001C0000000000000000000E72
:1034C000000E001B001B001B001B80318031803F61
:1034D000803F8031C060C060C0600000000000001C
:1034E0000000007C007E0063006300630063007ED8
:1034F000007E0063806180618063007F007E000049
:10350000000000000000001E003F8031806100606C
:103510000060006000600060006080618031003FFA
:10352000001E0000000000000000007C007F00631F
:1035300080638061806180618061806180610063FF
:103540000063007E007C0000000000000000807F1F
:10355000807F0060006000600060007F007F00608E
:10356000006000600060807F807F0000000000003D
:103570000000807F807F0060006000600060007F4E
:10358000007F00600060006000600060006000007C
:10359000000000000000001E003F803180610060DC
:1035A0000060006080638063806180618031803F63
:1035B000001E00000000000000008061806180614A
:1035C000806180618061807F807F806180618061B7
:1035D0008061806180610000000000000000003F09
:1035E000003F000C000C000C000C000C000C000C48
:1035F000000C000C000C003F003F00000000000029
:103600000000800180018001800180018001800133
:1036100080018001806180618073003F001E000096
:10362000000000000000C06080610063006600666A
:10363000006C0078007C0066006600638061806139
:10364000C06000000000000000000060006000603A
:10365000006000600060006000600060006000606A
:103660000060807F807F0000000000000000C071CB
:10367000C071C07BC07AC06AC06AC06EC064C060DE
:10368000C060C060C060C060C0600000000000009A
:10369000000080718071807980798079806D806D83
:1036A000806D8065806780678067806380630000CD
:1036B000000000000000001E003F003380618061B8
:1036C0008061806180618061806180610033003F42
:1036D000001E0000000000000000007E007F8063EC
:1036E0008061806180618063007F007E0060006097
:1036F0000060006000600000000000000000001E8C
:10370000003F003380618061806180618061806101
:10371000806580670033803F401E0000000000008D
:103720000000007E007F8063806180618063007F95
:10373000007E00660063006380618061C0600000FD
:10374000000000000000000E001F803180310030BA
:103750000038001E00078003806180618031003FD7
:10376000001E0000000000000000C0FFC0FF000CB1
:10377000000C000C000C000C000C000C000C000CE9
:10378000000C000C000C0000000000000000806134
:103790008061806180618061806180618061806121
:1037A000806180618073003F001E00000000000007
:1037B0000000C060C060C060803180318031001B7B
:1037C000001B001B001B000E000E000E000400007A
:1037D000000000000000C0C0C0C0C0C0C0C0C0C069
:1037E000C0CC804C804C805E80528052807380615F
:1037F00080610000000000000000C0C080608061A7
:103800000033003B001E000C000C001E001F003B9C
:1038100080718061C0C00000000000000000C0C0D6
:103820008061806100330033001E001E000C000C1C
:10383000000C000C000C000C000C0000000000004C
:103840000000803F803F8001000300030006000C61
:10385000000C0018001800300060807F807F00009E
:1038600000000000000F000F000C000C000C000C0A
:10387000000C000C000C000C000C000C000C000CE8
:10388000000C000C000F000F0000001800180018BA
:10389000000C000C000C000C0006000600060006E0
:1038A000000300030003000000000000001E001ED3
:1038B00000060006000600060006000600060006D8
:1038C000000600060006000600060006001E001E98
:1038D0000000000C000C001E001200330033806159
:1038E00080610000000000000000000000000000F7
:1038F00000000000000000000000000000000000C8
:1039000000000000000000000000000000000000B7
:1039100000000000E0FF0000000000380018000C6C
:103920000000000000000000000000000000000097
:103930000000000000000000000000000000000087
:10394000000000000000001F803F80618001801F98
:10395000803F80618063807FC038000000000000ED
:1039600000000060006000600060006E007F8073F7
:1039700080618061806180618073007F006E0000E3
:103980000000000000000000000000000000001E19
:10399000003F807380610060006080618073003F41
:1039A000001E000000000000000080018001800176
:1039B0008001801D803F80738061806180618061B3
:1039C0008073803F801D00000000000000000000A8
:1039D000000000000000001E003F00738061807F37
:1039E000807F00608071003F001E0000000000002A
:1039F0000000C007C00F000C000C807F807F000C0F
:103A0000000C000C000C000C000C000C000C000062
:103A1000000000000000000000000000801D803F4A
:103A2000807380618061806180618073803F801DD0
:103A300080018063007F003E000000600060006045
:103A40000060006F807F8071806180618061806133
:103A500080618061806100000000000000000006BD
:103A6000000600000000003E003E000600060006C2
:103A70000006000600060006000600000000000028
:103A80000006000600000000003E003E00060006A2
:103A900000060006000600060006000600060046B6
:103AA000007E003C000000600060006000608061FB
:103AB00000630066006C007C007600630063806138
:103AC000C0600000000000000000003E003E000654
:103AD00000060006000600060006000600060006B6
:103AE00000060006000600000000000000000000C4
:103AF00000000000000080DDC0FFC0CEC0CCC0CC04
:103B0000C0CCC0CCC0CCC0CCC0CC000000000000F9
:103B100000000000000000000000006F807F807146
:103B2000806180618061806180618061806100006E
:103B30000000000000000000000000000000001E67
:103B4000003F807380618061806180618073003F8D
:103B5000001E000000000000000000000000000047
:103B6000006E007F807380618061806180618073FE
:103B7000007F006E006000600060006000000000D8
:103B800000000000801D803F807380618061806143
:103B900080618073803F801D8001800180018001F1
:103BA000000000000000000000000067803F0039B6
:103BB00000300030003000300030003000300000B5
:103BC0000000000000000000000000000000001ED7
:103BD000803F80610060007F803F80018061007FC6
:103BE000001E000000000000000000000008001897
:103BF0000018007F007F0018001800180018001837
:103C00000018801F800F000000000000000000006E
:103C1000000000000000806180618061806180613F
:103C2000806180618063807F803D00000000000033
:103C300000000000000000000000C0608031803102
:103C40008031001B001B001B000E000E0006000050
:103C5000000000000000000000000000000080DD07
:103C600080DD80DD0055005500550077007700228B
:103C70000022000000000000000000000000000022
:103C80000000806100330033001E000C000C001E99
:103C900000330033806100000000000000000000DD
:103CA0000000000080618061803100330033001B20
:103CB000001B001B000E000E000E001C007C00709C
:103CC00000000000000000000000C07FC07F8001F5
:103CD00000030006000C00180030C07FC07F000009
:103CE00000000000800380070006000600060006B2
:103CF0000006000E001C001C000E00060006000658
:103D00000006000680078003000600060006000685
:103D10000006000600060006000600060006000673
:103D20000006000600060006000600060038003CFB
:103D3000000C000C000C000C000C000E000700072B
:103D4000000E000C000C000C000C000C003C0038B5
:103D500000000000000000000000000000008038AB
:103D6000807F00470000000000000000000000000D
:103D70000000000000000000000000000102030439
:0C3D80000607080900000000010203040F
:083D8C0078C4FF7F0100000074
:043D9400B901000869
:043D98009501000889
:103D9C000B120000183000080024F4001000000082
:043DAC000100000012
:0400000508000FA937
:00000001FF
