:020000040800F2
:1000000000800120890C0008C90A0008CF0A0008F6
:10001000D50A0008DB0A0008E10A00080000000019
:10002000000000000000000000000000E70A0008D7
:10003000F50A000800000000030B0008110B00087F
:10004000D90C0008D90C0008D90C0008D90C0008FC
:10005000D90C0008D90C0008D90C0008D90C0008EC
:10006000D90C0008D90C0008D90C0008D90C0008DC
:10007000D90C0008D90C0008D90C0008D90C0008CC
:10008000D90C0008D90C0008D90C000800000000A9
:10009000000000000000000000000000D90C000873
:1000A000D90C0008D90C0008D90C0008D90C00089C
:1000B000D90C0008D90C0008D90C0008D90C00088C
:1000C000D90C0008D90C0008D90C0008D90C00087C
:1000D000D90C0008D90C0008D90C00080000000059
:1000E000D90C0008D90C0008D90C00080000000049
:1000F000000000000000000000000000D90C000813
:1001000000000000D90C0008D90C0008D90C000828
:1001100000000000000000000000000000000000DF
:10012000D90C0008D90C0008D90C0008D90C00081B
:10013000D90C0008000000000000000000000000D2
:10014000000000000000000000000000D90C0008C2
:10015000D90C0008D90C0008D90C0008D90C0008EB
:10016000D90C0008D90C00080000000000000000B5
:10017000000000000000000000000000000000007F
:1001800000000000D90C0008000000000000000082
:04019000D90C00087E
:1001A00010B5054C237833B9044B13B10448AFF3B1
:1001B00000800123237010BD7000002000000000AB
:1001C0009038000808B5034B1BB103490348AFF34F
:1001D000008008BD00000000740000209038000876
:1001E00001F0FF01102A2BDB10F0070F08D010F8E8
:1001F000013B013A8B422DD010F0070F42B3F6D1EC
:10020000F0B441EA012141EA014122F007047FF004
:1002100000070023F0E80256083C85EA010586EA5B
:10022000010685FA47F5A3FA87F586FA47F6A5FA97
:1002300087F68EB9EED1F0BC01F0FF0102F00702A3
:1002400032B110F8013B013A83EA010313B1F8D14E
:100250000020704701387047002D06BF354603382F
:10026000073815F0010F07D1013015F4807F02BF68
:10027000013015F4C03F0130F0BC0138704700BFB9
:1002800053B94AB9002908BF00281CBF4FF0FF31FD
:100290004FF0FF3000F074B9ADF1080C6DE904CEF9
:1002A00000F006F8DDF804E0DDE9022304B0704751
:1002B0002DE9F047089D04468E46002B4DD18A4219
:1002C000944669D9B2FA82F252B101FA02F3C2F14C
:1002D000200120FA01F10CFA02FC41EA030E9440DD
:1002E0004FEA1C48210CBEFBF8F61FFA8CF708FBFE
:1002F00016E341EA034306FB07F199420AD91CEBD6
:10030000030306F1FF3080F01F81994240F21C8107
:10031000023E63445B1AA4B2B3FBF8F008FB10334F
:1003200044EA034400FB07F7A7420AD91CEB040484
:1003300000F1FF3380F00A81A74240F20781644454
:10034000023840EA0640E41B00261DB1D4400023D9
:10035000C5E900433146BDE8F0878B4209D9002D3D
:1003600000F0EF800026C5E9000130463146BDE8C7
:10037000F087B3FA83F6002E4AD18B4202D3824231
:1003800000F2F980841A61EB030301209E46002DE0
:10039000E0D0C5E9004EDDE702B9FFDEB2FA82F235
:1003A000002A40F09280A1EB0C014FEA1C471FFA93
:1003B0008CFE0126200CB1FBF7F307FB131140EA7A
:1003C00001410EFB03F0884208D91CEB010103F147
:1003D000FF3802D2884200F2CB804346091AA4B209
:1003E000B1FBF7F007FB101144EA01440EFB00FEDD
:1003F000A64508D91CEB040400F1FF3102D2A64542
:1004000000F2BB800846A4EB0E0440EA03409CE7E0
:10041000C6F12007B34022FA07FC4CEA030C20FA8D
:1004200007F401FA06F31C43F9404FEA1C4900FAAD
:1004300006F3B1FBF9F8200C1FFA8CFE09FB18112A
:1004400040EA014108FB0EF0884202FA06F20BD99D
:100450001CEB010108F1FF3A80F08880884240F2ED
:100460008580A8F102086144091AA4B2B1FBF9F031
:1004700009FB101144EA014100FB0EFE8E4508D92C
:100480001CEB010100F1FF346CD28E456AD90238B1
:10049000614440EA0840A0FB0294A1EB0E01A14296
:1004A000C846A64656D353D05DB1B3EB080261EB04
:1004B0000E0101FA07F722FA06F3F1401F43C5E9DE
:1004C000007100263146BDE8F087C2F12003D84014
:1004D0000CFA02FC21FA03F3914001434FEA1C4756
:1004E0001FFA8CFEB3FBF7F007FB10360B0C43EA48
:1004F000064300FB0EF69E4204FA02F408D91CEBF8
:10050000030300F1FF382FD29E422DD902386344F5
:100510009B1B89B2B3FBF7F607FB163341EA034195
:1005200006FB0EF38B4208D91CEB010106F1FF38E4
:1005300016D28B4214D9023E6144C91A46EA0046DB
:1005400038E72E46284605E70646E3E61846F8E66D
:100550004B45A9D2B9EB020864EB0C0E0138A3E7B6
:100560004646EAE7204694E74046D1E7D0467BE797
:10057000023B614432E7304609E76444023842E70F
:10058000704700BF80B582B000AF7860391D4FF072
:10059000FF330122074801F046FE391D4FF0FF33BB
:1005A0000122054801F03FFE7B6818460837BD462A
:1005B00080BD00BF24010020E000002080B582B093
:1005C00000AF00F08BFB00F03DF800F01DF900F0EB
:1005D000F1F800F097F800F0C3F8154802F0CAF9F6
:1005E0000023FB711CE0FB799BB25B0099B20A23EC
:1005F0000322104800F0ACFF0346BB71BB79002B0F
:1006000003D00D4802F0B6F907E0BB79002B04D106
:10061000FB791946094802F0ADF9FB790133FB710A
:1006200097F90730002BDEDA054802F0A3F9FEE760
:10063000A83800088C000020C4380008C83800081A
:10064000D038000880B594B000AF07F12003302205
:100650000021184602F086F907F10C0300221A6007
:100660005A609A60DA601A610023BB60234B1B6CEE
:10067000224A43F080531364204B1B6C03F08053D9
:10068000BB60BB6800237B601D4B1B6823F44043A9
:100690001B4A43F400431360194B1B6803F44043A7
:1006A0007B607B6802233B620123FB6210233B6378
:1006B0000023BB6307F12003184601F0CFF803467F
:1006C000002B01D000F00EF90F23FB6000233B61EB
:1006D00000237B614FF48053BB610023FB6107F172
:1006E0000C030021184601F031FB0346002B01D01A
:1006F00000F0F8F800BF5037BD4680BD003802401A
:100700000070004080B500AF124B134A1A60114BC5
:10071000124A5A600F4B00229A600E4B0022DA6098
:100720000C4B4FF480421A610A4B00225A61094B6C
:1007300000229A61074B0022DA61064B00221A62FE
:10074000044800F0C1FD0346002B01D000F0CAF8B8
:1007500000BF80BD8C00002000540040801A0600BD
:1007600080B500AF114B124A1A60104B4FF4E132C2
:100770005A600E4B00229A600C4B0022DA600B4B41
:1007800000221A61094B0C225A61084B00229A611F
:10079000064B0022DA61054801F0F8FC0346002B05
:1007A00001D000F09FF800BF80BD00BFE000002036
:1007B0000010014080B500AF114B124A1A60104B77
:1007C0004FF4E1325A600E4B00229A600C4B00222B
:1007D000DA600B4B00221A61094B0C225A61084B5C
:1007E00000229A61064B0022DA61054801F0CEFC36
:1007F0000346002B01D000F075F800BF80BD00BF9C
:10080000240100200044004080B58AB000AF07F109
:10081000140300221A605A609A60DA601A61002399
:100820003B612D4B1B6B2C4A43F0040313632A4B93
:100830001B6B03F004033B613B690023FB60264B09
:100840001B6B254A43F080031363234B1B6B03F0A0
:100850008003FB60FB680023BB601F4B1B6B1E4AC1
:1008600043F0010313631C4B1B6B03F00103BB60DC
:10087000BB6800237B60184B1B6B174A43F00203D5
:100880001363154B1B6B03F002037B607B68002234
:100890002021124800F0FEFC4FF400537B614FF41E
:1008A0000413BB610023FB6107F1140319460C48D4
:1008B00000F06CFB20237B610123BB610023FB6103
:1008C00000233B6207F114031946044800F05EFB65
:1008D00000BF2837BD4680BD0038024000000240FE
:1008E0000008024080B400AF72B600BFFEE700000F
:1008F00080B582B000AF00237B60104B5B6C0F4A69
:1009000043F4804353640D4B5B6C03F480437B6082
:100910007B6800233B60094B1B6C084A43F0805303
:100920001364064B1B6C03F080533B603B6807204D
:1009300000F0F8FA00BF0837BD4680BD003802401D
:1009400080B58AB000AF786007F1140300221A6006
:100950005A609A60DA601A617B681B68194A934290
:100960002BD100233B61184B1B6B174A43F002034A
:100970001363154B1B6B03F002033B613B69C02300
:100980007B611223BB610023FB6103233B620423D1
:100990007B6207F1140319460C4800F0F7FA0023B4
:1009A000FB60094B1B6C084A43F400131364064BAD
:1009B0001B6C03F40013FB60FB6800BF2837BD46C7
:1009C00080BD00BF005400400038024000040240D7
:1009D00080B58CB000AF786007F11C0300221A606C
:1009E0005A609A60DA601A617B681B68324A9342E7
:1009F0002DD10023BB61314B5B6C304A43F01003B7
:100A000053642E4B5B6C03F01003BB61BB69002386
:100A10007B612A4B1B6B294A43F001031363274B6D
:100A20001B6B03F001037B617B694FF4C063FB61C7
:100A300002233B6200237B620323BB620723FB622A
:100A400007F11C0319461E4800F0A0FA30E07B684D
:100A50001B681C4A93422BD100233B61174B1B6C34
:100A6000164A43F400331364144B1B6C03F4003335
:100A70003B613B690023FB60104B1B6B0F4A43F04B
:100A8000010313630D4B1B6B03F00103FB60FB6859
:100A90000C23FB6102233B6200237B620023BB62C9
:100AA0000723FB6207F11C031946054800F06EFAA4
:100AB00000BF3037BD4680BD001001400038024005
:100AC000000002400044004080B400AFFEE780B464
:100AD00000AFFEE780B400AFFEE780B400AFFEE7F2
:100AE00080B400AFFEE780B400AF00BFBD465DF844
:100AF000047B704780B400AF00BFBD465DF8047B47
:100B0000704780B400AF00BFBD465DF8047B7047FE
:100B100080B500AF00F034F900BF80BD80B586B06D
:100B200000AFF860B9607A6000237B610AE0AFF340
:100B300000800146BB685A1CBA60CAB21A707B6951
:100B400001337B617A697B689A42F0DB7B681846E7
:100B50001837BD4680BD80B586B000AFF860B9607B
:100B60007A6000237B6109E0BB685A1CBA601B787D
:100B70001846FFF707FD7B6901337B617A697B6863
:100B80009A42F1DB7B6818461837BD4680BD80B4B9
:100B900083B000AF78604FF0FF3318460C37BD4686
:100BA0005DF8047B704780B483B000AF7860396033
:100BB0003B684FF400525A60002318460C37BD467C
:100BC0005DF8047B704780B483B000AF7860012388
:100BD00018460C37BD465DF8047B704780B485B07D
:100BE00000AFF860B9607A60002318461437BD463C
:100BF0005DF8047B7047000080B586B000AF786078
:100C0000144A154BD31A7B617B693B61134B1B68FC
:100C1000002B02D1114B124A1A60104B1A687B68E4
:100C200013443A699A4207D201F072FE03460C223D
:100C30001A604FF0FF3309E0084B1B68FB60074B5D
:100C40001A687B681344054A1360FB681846183716
:100C5000BD4680BD00800120000400006801002026
:100C60008001002080B400AF064BD3F88830054ADD
:100C700043F47003C2F8883000BFBD465DF8047BC2
:100C8000704700BF00ED00E0DFF834D00D480E499A
:100C90000E4A002302E0D458C4500433C4188C42D6
:100CA000F9D30B4A0B4C002301E013600432A2423B
:100CB000FBD3FFF7D7FF01F031FEFFF77FFC704752
:100CC000008001200000002070000020A8390008EA
:100CD0007000002080010020FEE7000080B500AF1A
:100CE0000E4B1B680D4A43F4007313600B4B1B68DB
:100CF0000A4A43F480631360084B1B68074A43F4B5
:100D000080731360032000F00DF9002000F008F854
:100D1000FFF7EEFD0023184680BD00BF003C0240F7
:100D200080B582B000AF7860124B1A68124B1B7806
:100D300019464FF47A73B3FBF1F3B2FBF3F31846A1
:100D400000F017F90346002B01D001230EE07B6869
:100D50000F2B0AD8002279684FF0FF3000F0EDF831
:100D6000064A7B681360002300E001231846083719
:100D7000BD4680BD000000200800002004000020C7
:100D800080B400AF064B1B781A46064B1B68134411
:100D9000044A136000BFBD465DF8047B704700BF86
:100DA000080000206C01002080B400AF034B1B68DA
:100DB0001846BD465DF8047B704700BF6C010020FB
:100DC00080B485B000AF78607B6803F00703FB60F8
:100DD0000C4BDB68BB60BA684FF6FF031340BB6087
:100DE000FB681A02BB68134343F0BF6343F400334C
:100DF000BB60044ABB68D36000BF1437BD465DF8D2
:100E0000047B704700ED00E080B400AF044BDB686A
:100E10001B0A03F007031846BD465DF8047B7047C4
:100E200000ED00E080B483B000AF03463960FB7191
:100E300097F90730002B0ADB3B68DAB20C4997F9C7
:100E400007301201D2B20B4483F800230AE03B685A
:100E5000DAB20849FB7903F00F03043B1201D2B266
:100E60000B441A7600BF0C37BD465DF8047B704713
:100E700000E100E000ED00E080B489B000AFF86070
:100E8000B9607A60FB6803F00703FB61FB69C3F19B
:100E90000703042B28BF0423BB61FB690433062B23
:100EA00002D9FB69033B00E000237B614FF0FF3276
:100EB000BB6902FA03F3DA43BB681A407B699A40C4
:100EC0004FF0FF317B6901FA03F3D9437B680B4094
:100ED000134318462437BD465DF8047B7047000075
:100EE00080B582B000AF78607B68013BB3F1807F52
:100EF00001D301230FE00A4A7B68013B53600F21B5
:100F00004FF0FF30FFF78EFF054B00229A60044B35
:100F100007221A60002318460837BD4680BD00BF6F
:100F200010E000E080B582B000AF78607868FFF72D
:100F300047FF00BF0837BD4680BD80B586B000AF13
:100F40000346B9607A60FB7300237B61FFF75CFFA7
:100F500078617A68B9687869FFF78EFF024697F979
:100F60000F3011461846FFF75DFF00BF1837BD462A
:100F700080BD80B582B000AF78607868FFF7B0FFC1
:100F8000034618460837BD4680BD000080B489B0CE
:100F900000AF7860396000237B6100233B61002350
:100FA000BB610023FB6159E10122FB6902FA03F3F3
:100FB0007B613B681B687A6913403B613A697B69D6
:100FC0009A4240F048813B685B6803F00303012BC1
:100FD00005D03B685B6803F00303022B30D17B68CC
:100FE0009B68BB61FB695B00032202FA03F3DB43EE
:100FF000BA691340BB613B68DA68FB695B0002FABF
:1010000003F3BA691343BB617B68BA699A607B6872
:101010005B68BB610122FB6902FA03F3DB43BA6937
:101020001340BB613B685B681B0903F00102FB696D
:1010300002FA03F3BA691343BB617B68BA695A6069
:101040003B685B6803F00303032B17D07B68DB6806
:10105000BB61FB695B00032202FA03F3DB43BA695D
:101060001340BB613B689A68FB695B0002FA03F3BB
:10107000BA691343BB617B68BA69DA603B685B6835
:1010800003F00303022B23D1FB69DA087B680832E3
:1010900053F82230BB61FB6903F007039B000F226A
:1010A00002FA03F3DB43BA691340BB613B681A6978
:1010B000FB6903F007039B0002FA03F3BA691343C9
:1010C000BB61FB69DA087B680832B96943F8221012
:1010D0007B681B68BB61FB695B00032202FA03F3B8
:1010E000DB43BA691340BB613B685B6803F00302F2
:1010F000FB695B0002FA03F3BA691343BB617B68C7
:10110000BA691A603B685B6803F44033002B00F057
:10111000A2800023FB60574B5B6C564A43F480432C
:101120005364544B5B6C03F48043FB60FB68524A8E
:10113000FB699B08023352F82330BB61FB6903F063
:1011400003039B000F2202FA03F3DB43BA69134047
:10115000BB617B68494A934219D07B68484A9342F5
:1011600013D07B68474A93420DD07B68464A93422E
:1011700007D07B68454A934201D1042308E0072346
:1011800006E0032304E0022302E0012300E0002341
:10119000FA6902F0030292009340BA691343BB61FB
:1011A0003549FB699B080233BA6941F82320384B63
:1011B0009B68BB613B69DB43BA691340BB613B6819
:1011C0005B6803F48013002B03D0BA693B691343B7
:1011D000BB612F4ABB6993602D4BDB68BB613B69E8
:1011E000DB43BA691340BB613B685B6803F40013DF
:1011F000002B03D0BA693B691343BB61244ABB6926
:10120000D360234B5B68BB613B69DB43BA69134026
:10121000BB613B685B6803F40033002B03D0BA6901
:101220003B691343BB611A4ABB695360184B1B6887
:10123000BB613B69DB43BA691340BB613B685B68D8
:1012400003F48033002B03D0BA693B691343BB61BD
:101250000F4ABB691360FB690133FB61FB690F2B0C
:101260007FF6A2AE00BF00BF2437BD465DF8047B09
:10127000704700BF003802400038014000000240C3
:101280000004024000080240000C0240001002402E
:10129000003C014080B483B000AF78600B467B8097
:1012A00013467B707B78002B03D07A887B689A6129
:1012B00003E07B881A047B689A6100BF0C37BD4647
:1012C0005DF8047B7047000080B584B000AF7860A3
:1012D0007B68002B01D101232BE17B6893F83D3023
:1012E000DBB2002B06D17B68002283F83C207868B3
:1012F000FFF726FB7B68242283F83D207B681B6870
:101300001A687B681B6822F001021A607B681B6800
:101310001A687B681B6842F400421A607B681B688D
:101320001A687B681B6822F400421A6000F006FF0E
:10133000F8607B685B68814A934207D8FB68804A03
:10134000934294BF01230023DBB206E0FB687D4A91
:10135000934294BF01230023DBB2002B01D0012371
:10136000E7E0FB68784AA2FB03239B0CBB607B6829
:101370001B685B6823F03F017B681B68BA680A43FF
:101380005A607B681B681B6A23F03F017B685B68BF
:101390006A4A934202D8BB68013309E0BB684FF444
:1013A000967202FB03F3694AA2FB03239B090133F4
:1013B0007A6812680B4313627B681B68DB6923F44D
:1013C0004F4222F0FF027B685B685C498B4219D870
:1013D000FB68591E7B685B685B00B1FBF3F3591C2B
:1013E00040F6FC730B40002B0AD0FB68591E7B684B
:1013F0005B685B00B1FBF3F30133C3F30B0351E014
:1014000004234FE07B689B68002B11D1FB68581EBA
:101410007B6859680B465B000B44B0FBF3F3013368
:10142000C3F30B03002B0CBF01230023DBB212E03C
:10143000FB68581E7B6859680B469B000B4499005B
:101440000B44B0FBF3F30133C3F30B03002B0CBFCE
:1014500001230023DBB2002B01D0012322E07B68B3
:101460009B68002B0ED1FB68581E7B6859680B46A1
:101470005B000B44B0FBF3F30133C3F30B0343F402
:1014800000430FE0FB68581E7B6859680B469B00C1
:101490000B4499000B44B0FBF3F30133C3F30B038C
:1014A00043F44043796809681343CB617B681B6848
:1014B0001B6823F0C0017B68DA697B681B6A1A43EA
:1014C0007B681B680A431A607B681B689B6823F46F
:1014D000034323F0FF037A6811697A68D2681143E5
:1014E0007A6812680B4393607B681B68DB6823F0A3
:1014F000FF017B685A697B689B691A437B681B689C
:101500000A43DA607B681B681A687B681B6842F0D4
:1015100001021A607B6800221A647B68202283F82B
:101520003D207B6800221A637B68002283F83E20FE
:10153000002318461037BD4680BD00BFA0860100BD
:101540007F841E00FF083D0083DE1B43D34D6210E5
:1015500080B58AB002AFF8607A603B600B467B8151
:10156000FFF722FCF8610023BB61FB6893F83D3074
:10157000DBB2202B40F01181FB690093192301227B
:101580008849F86800F012F90346002B01D00223C5
:1015900004E1FB6893F83C30012B01D10223FDE00C
:1015A000FB68012283F83C20FB681B681B6803F082
:1015B0000103012B07D0FB681B681A68FB681B68D6
:1015C00042F001021A60FB681B681A68FB681B681E
:1015D00022F400621A60FB68242283F83D20FB6835
:1015E00000221A64FB68704ADA62FB681B681A689A
:1015F000FB681B6842F480721A60FB6900933B68C9
:1016000000224FF00111F86800F0D0F80346002BDB
:101610000DD0FB681B681B6803F48073B3F5807FF3
:1016200003D1FB684FF400721A640323B6E07B8990
:10163000DBB21A46FB681B6802F0FE021A61FFF774
:10164000B3FBF861FB681B685B6903F00203022BC4
:101650000CBF01230023DBB2FB75FB681B685B69D1
:1016600003F48063B3F5806F0CBF01230023DBB26A
:10167000BB7525E0FFF798FB0246FB69D31A3A6871
:101680009A4202D33B68002B03D1FB68A02283F867
:101690003D20FB681B685B6903F00203022B0CBF53
:1016A00001230023DBB2FB75FB681B685B6903F455
:1016B0008063B3F5806F0CBF01230023DBB2BB75E1
:1016C000FB6893F83D30DBB2A02B05D0FB7D002BEF
:1016D00002D1BB7D002BCDD0FB68202283F83D20BA
:1016E000FB681B685B6903F00203022B29D1FB68CE
:1016F0001B681A68FB681B6842F400721A600023BA
:101700003B61FB681B685B693B61FB681B689B690D
:101710003B613B69FB690093192301222149F86869
:1017200000F044F80346002B01D0012336E0FB68AB
:10173000202283F83D20FB68002283F83C20002310
:101740002CE0FB681B681A68FB681B6842F4007297
:101750001A60FB681B686FF480625A61FB69009332
:10176000192301220F49F86800F020F80346002BE6
:1017700001D0012312E0BB690133BB61BA697B6808
:101780009A42FFF432AFFB68202283F83D20FB68C9
:10179000002283F83C20012300E002231846203772
:1017A000BD4680BD020010000000FFFF80B584B080
:1017B00000AFF860B9603B601346FB7125E03B6801
:1017C000B3F1FF3F21D0FFF7EFFA0246BB69D31A0E
:1017D0003A689A4202D33B68002B16D1FB6800227C
:1017E0001A63FB68202283F83D20FB68002283F8FF
:1017F0003E20FB681B6C43F02002FB681A64FB6808
:10180000002283F83C20012323E0BB681B0CDBB2E1
:10181000012B0DD1FB681B685B69DA43BB68134081
:101820009BB2002B0CBF01230023DBB21A460CE055
:10183000FB681B689B69DA43BB6813409BB2002BB3
:101840000CBF01230023DBB21A46FB799A42B6D0C3
:10185000002318461037BD4680BD000080B586B015
:1018600000AF78607B68002B01D1012367E27B68C1
:101870001B6803F00103002B75D0884B9B6803F0B5
:101880000C03042B0CD0854B9B6803F00C03082B36
:1018900012D1824B5B6803F48003B3F5800F0BD148
:1018A0007E4B1B6803F40033002B5BD07B685B68C6
:1018B000002B57D1012342E27B685B68B3F5803F80
:1018C00006D1764B1B68754A43F4803313601DE0E4
:1018D0007B685B68B3F5A02F0CD1704B1B686F4A17
:1018E00043F4802313606D4B1B686C4A43F48033D0
:1018F00013600BE0694B1B68684A23F48033136064
:10190000664B1B68654A23F4802313607B685B6821
:10191000002B13D0FFF748FA386108E0FFF744FACC
:1019200002463B69D31A642B01D9032307E25B4BC0
:101930001B6803F40033002BF0D014E0FFF734FAF7
:10194000386108E0FFF730FA02463B69D31A642B8E
:1019500001D90323F3E1514B1B6803F40033002B3F
:10196000F0D100E000BF7B681B6803F00203002B8E
:1019700063D04A4B9B6803F00C03002B0BD0474B02
:101980009B6803F00C03082B1CD1444B5B6803F4E9
:101990008003002B16D1414B1B6803F00203002B80
:1019A00005D07B68DB68012B01D00123C7E13B4BED
:1019B0001B6823F0F8027B681B69DB00374913437F
:1019C0000B603AE07B68DB68002B20D0344B0122AF
:1019D0001A60FFF7E9F9386108E0FFF7E5F9024618
:1019E0003B69D31A022B01D90323A8E12B4B1B68B7
:1019F00003F00203002BF0D0284B1B6823F0F80201
:101A00007B681B69DB00254913430B6015E0244B01
:101A100000221A60FFF7C8F9386108E0FFF7C4F93F
:101A200002463B69D31A022B01D9032387E11B4BE2
:101A30001B6803F00203002BF0D17B681B6803F0E6
:101A40000803002B36D07B685B69002B16D0154B42
:101A500001221A60FFF7A8F9386108E0FFF7A4F93E
:101A600002463B69D31A022B01D9032367E10B4BD2
:101A70005B6F03F00203002BF0D01BE0094B002248
:101A80001A60FFF791F938610EE0FFF78DF9024611
:101A90003B69D31A022B07D9032350E100380240D7
:101AA00000004742800E4742884B5B6F03F0020301
:101AB000002BEAD17B681B6803F00403002B00F0C5
:101AC00097800023FB75814B1B6C03F08053002B28
:101AD0000FD10023BB607D4B1B6C7C4A43F08053CD
:101AE00013647A4B1B6C03F08053BB60BB6801230B
:101AF000FB75774B1B6803F48073002B18D1744B74
:101B00001B68734A43F480731360FFF74DF9386123
:101B100008E0FFF749F902463B69D31A022B01D9C5
:101B200003230CE16A4B1B6803F48073002BF0D095
:101B30007B689B68012B06D1644B1B6F634A43F0A3
:101B4000010313671CE07B689B68052B0CD15F4B7E
:101B50001B6F5E4A43F0040313675C4B1B6F5B4AC9
:101B600043F0010313670BE0584B1B6F574A23F0F8
:101B700001031367554B1B6F544A23F0040313678B
:101B80007B689B68002B15D0FFF70EF938610AE0DF
:101B9000FFF70AF902463B69D31A41F288329342B1
:101BA00001D90323CBE0494B1B6F03F00203002B49
:101BB000EED014E0FFF7F8F838610AE0FFF7F4F828
:101BC00002463B69D31A41F28832934201D903237A
:101BD000B5E03E4B1B6F03F00203002BEED1FB7D03
:101BE000012B05D1394B1B6C384A23F08053136409
:101BF0007B689B69002B00F0A180344B9B6803F04D
:101C00000C03082B5CD07B689B69022B41D1314BC4
:101C100000221A60FFF7C8F8386108E0FFF7C4F83F
:101C200002463B69D31A022B01D9032387E0274BD5
:101C30001B6803F00073002BF0D17B68DA697B68C6
:101C40001B6A1A437B685B6A9B011A437B689B6A29
:101C50005B08013B1B041A437B68DB6A1B061B49BC
:101C600013434B601B4B01221A60FFF79DF838614C
:101C700008E0FFF799F802463B69D31A022B01D915
:101C800003235CE0114B1B6803F00073002BF0D0C2
:101C900054E0104B00221A60FFF786F8386108E024
:101CA000FFF782F802463B69D31A022B01D90323BE
:101CB00045E0064B1B6803F00073002BF0D13DE0BC
:101CC0007B689B69012B07D1012338E00038024073
:101CD00000700040600047421B4B5B68FB607B6804
:101CE0009B69012B28D0FB6803F480027B68DB69C9
:101CF0009A4221D1FB6803F03F027B681B6A9A423B
:101D00001AD1FA6847F6C07313407A68526A920192
:101D1000934211D1FB6803F440327B689B6A5B08F5
:101D2000013B1B049A4207D1FB6803F070627B6899
:101D3000DB6A1B069A4201D0012300E0002318460B
:101D40001837BD4680BD00BF0038024080B584B062
:101D500000AF786039607B68002B01D10123CCE0B3
:101D6000684B1B6803F007033A689A420CD9654B2D
:101D70003A68D2B21A70634B1B6803F007033A68E3
:101D80009A4201D00123B8E07B681B6803F002038C
:101D9000002B20D07B681B6803F00403002B05D0C8
:101DA000594B9B68584A43F4E05393607B681B6827
:101DB00003F00803002B05D0534B9B68524A43F4B1
:101DC00060439360504B9B6823F0F0027B689B68F4
:101DD0004D4913438B607B681B6803F00103002BA4
:101DE00044D07B685B68012B07D1474B1B6803F429
:101DF0000033002B19D101237FE07B685B68022B45
:101E000003D07B685B68032B07D13F4B1B6803F053
:101E10000073002B09D101236FE03B4B1B6803F0DB
:101E20000203002B01D1012367E0374B9B6823F0AD
:101E300003027B685B68344913438B60FEF7B4FF91
:101E4000F8600AE0FEF7B0FF0246FB68D31A41F2E1
:101E50008832934201D903234FE02B4B9B6803F058
:101E60000C027B685B689B009A42EBD1254B1B6898
:101E700003F007033A689A420CD2224B3A68D2B276
:101E80001A70204B1B6803F007033A689A4201D08E
:101E9000012332E07B681B6803F00403002B08D0A9
:101EA000194B9B6823F4E0527B68DB6816491343A7
:101EB0008B607B681B6803F00803002B09D0124B72
:101EC0009B6823F460427B681B69DB000E49134367
:101ED0008B6000F021F802460B4B9B681B0903F056
:101EE0000F030A49CB5C22FA03F3094A1360094B3A
:101EF0001B681846FEF714FF002318461037BD462E
:101F000080BD00BF003C024000380240E8380008B5
:101F100000000020040000202DE9B04F94B000AF75
:101F200000237B640023FB6400233B640023BB6429
:101F3000794B9B6803F00C03082B0DD0082B00F2A3
:101F4000E180002B02D0042B03D0DBE0734BBB6499
:101F5000DBE0734BBB64D8E06F4B5B6803F03F037F
:101F60007B646D4B5B6803F48003002B63D06A4B8A
:101F70005B689B090022BB63FA63BB6BC3F3080376
:101F80003B6300237B63D7E90C4522462B464FF089
:101F900000004FF00001590141EAD26150010246B0
:101FA0000B462146511A3961294663EB01037B61D7
:101FB0004FF000024FF00003D7E904AB59468B0104
:101FC000514643EA916351468A015146B2EB0108FA
:101FD000594663EB01094FF000024FF000034FEA4E
:101FE000C90343EA58734FEAC8029046994623460C
:101FF00018EB0303BB602B4649EB0303FB604FF078
:1020000000024FF00003D7E9024529464B02214662
:1020100043EAD15321464A02104619467B6C0022FE
:10202000BB62FA62D7E90A23FEF72AF902460B4699
:102030001346FB6458E0384B5B689B090022184646
:102040001146C0F308033B6200237B62D7E908898D
:1020500042464B464FF000004FF00001590141EA63
:10206000D261500102460B464146B2EB010A494695
:1020700063EB010B4FF000024FF000034FEA8B13AC
:1020800043EA9A634FEA8A12B2EB0A0463EB0B0548
:102090004FF000024FF00003EB0043EA5473E200FC
:1020A00014461D464346E3183B604B4645EB03038D
:1020B0007B604FF000024FF00003D7E9004529464E
:1020C0008B02214643EA915321468A021046194663
:1020D0007B6C0022BB61FA61D7E90623FEF7D0F8DA
:1020E00002460B461346FB640B4B5B681B0C03F06C
:1020F000030301335B003B64FA6C3B6CB2FBF3F30C
:10210000BB6402E0054BBB6400BFBB6C1846503794
:10211000BD46BDE8B08F00BF003802400024F40087
:1021200000127A0080B400AF034B1B681846BD460E
:102130005DF8047B704700BF0000002080B500AF51
:10214000FFF7F0FF0246054B9B689B0A03F007036D
:102150000349CB5C22FA03F3184680BD00380240E5
:10216000F838000880B500AFFFF7DCFF0246054BEA
:102170009B685B0B03F007030349CB5C22FA03F374
:10218000184680BD00380240F838000880B582B09B
:1021900000AF78607B68002B01D101233FE07B68B2
:1021A00093F83D30DBB2002B06D17B68002283F828
:1021B0003C207868FEF70CFC7B68242283F83D20E5
:1021C0007B681B68DA687B681B6822F40052DA605F
:1021D000786800F029F97B681B681A697B681B68BE
:1021E00022F490421A617B681B685A697B681B68FD
:1021F00022F02A025A617B681B68DA687B681B68D8
:1022000042F40052DA607B6800221A647B68202264
:1022100083F83D207B68202283F83E200023184667
:102220000837BD4680BD80B58AB002AFF860B9609E
:102230003B601346FB8000237B61FB6893F83D30D5
:10224000DBB2202B7CD1BB68002B02D0FB88002B9B
:1022500001D1012375E0FB6893F83C30012B01D1DB
:1022600002236EE0FB68012283F83C20FB68002219
:102270001A64FB68212283F83D20FEF795FD786102
:10228000FB68FA889A84FB68FA88DA84FB689B68A2
:10229000B3F5805F08D1FB681B69002B04D10023D4
:1022A000FB61BB68BB6103E0BB68FB610023BB61F2
:1022B000FB68002283F83C202AE03B6800937B699E
:1022C00000228021F86800F040F80346002B01D07E
:1022D000032336E0FB69002B0BD1BB691B881A4630
:1022E000FB681B68C2F308025A60BB690233BB611A
:1022F00007E0FB691A78FB681B685A60FB690133C9
:10230000FB61FB68DB8C9BB2013B9AB2FB68DA8411
:10231000FB68DB8C9BB2002BCFD13B6800937B69C1
:1023200000224021F86800F010F80346002B01D08D
:10233000032306E0FB68202283F83D20002300E011
:10234000022318462037BD4680BD80B590B000AF4F
:10235000F860B9603B601346FB7150E0BB6CB3F1B1
:10236000FF3F4CD0BB6C002B07D0FEF71DFD024693
:102370003B68D31ABA6C9A4241D2FB681B680C3393
:10238000BB62BB6A53E8003F7B627B6A23F4D07375
:10239000FB63FB681B680C33FA6B7A633B63396B36
:1023A0007A6B41E80023FB62FB6A002BE5D1FB68F6
:1023B0001B6814337B617B6953E8003F3B613B69D9
:1023C00023F00103BB63FB681B681433BA6B3A62EA
:1023D000FB61F9693A6A41E80023BB61BB69002BE4
:1023E000E5D1FB68202283F83D20FB68202283F89A
:1023F0003E20FB68002283F83C2003230FE0FB68AB
:102400001B681A68BB681340BA689A420CBF012364
:102410000023DBB21A46FB799A429FD0002318466C
:102420004037BD4680BD00002DE9B04FC0B000AFC1
:10243000C7F8F400D7F8F4301B681B6923F4405048
:10244000D7F8F430D968D7F8F4301A6840EA0103B5
:102450001361D7F8F4309A68D7F8F4301B691A433F
:10246000D7F8F4305B691A43D7F8F430DB691343CB
:10247000C7F8F830D7F8F4301B68DB6823F416414E
:1024800021F00C01D7F8F4301A68D7F8F8300B4374
:10249000D360D7F8F4301B685B6923F44070D7F839
:1024A000F4309969D7F8F4301A6840EA01035361AF
:1024B000D7F8F4301A688F4B9A4205D0D7F8F43029
:1024C0001A688D4B9A4204D1FFF74CFEC7F8FC0006
:1024D00003E0FFF733FEC7F8FC00D7F8F430DB6900
:1024E000B3F5004F40F00C81D7F8FC300022C7F85C
:1024F000E830C7F8EC20D7E93A4522462B46911838
:10250000B9655B41FB65D7E91623214612EB01084B
:10251000294643EB01094FF000024FF000034FEA58
:10252000C90343EA58734FEAC802904699462346C6
:1025300018EB0303C7F8E0302B4649EB0303C7F859
:10254000E430D7F8F4305B680022C7F8D830C7F819
:10255000DC20D7E936120B46DB183B65134642EB0D
:1025600003037B65D7E91423D7E93801FDF788FE1B
:1025700002460B46614BA3FB02235B091C01D7F803
:10258000FC300022C7F8D030C7F8D420D7E934890E
:1025900042464B469118B9645B41FB64D7E912236C
:1025A000414612EB010A494643EB010B4FF0000292
:1025B0004FF000034FEACB0343EA5A734FEACA02D3
:1025C00092469B4643461AEB0303C7F8C8304B4676
:1025D0004BEB0303C7F8CC30D7F8F4305B6800222C
:1025E000C7F8C030C7F8C420D7E930120B46DB1853
:1025F0003B64134642EB03037B64D7E91023D7E91E
:102600003201FDF73DFE02460B4611463B4BA3FB54
:1026100001235B09642202FB03F3CB1ADB0003F105
:102620003202364BA3FB02235B095B0003F4F87311
:102630001C44D7F8FC300022C7F8B830C7F8BC20DB
:10264000D7E92E8942464B469118B9635B41FB633B
:10265000D7E90E2341465118396349464B417B6304
:102660004FF000024FF00003D7E90CAB5946CB0006
:10267000514643EA51735146CA0010461946034673
:1026800042469B18C7F8B0304B460A4642EB03035C
:10269000C7F8B430D7F8F4305B680022C7F8A83028
:1026A000C7F8AC20D7E92A120B46DB18BB621346E9
:1026B00042EB0303FB62D7E90A23D7E92C01FDF7BC
:1026C000DFFD02460B460D4BA3FB02135B096421A1
:1026D00001FB03F3D31ADB003233084AA2FB0323C6
:1026E0005B0903F00702D7F8F4301B6822449A60B4
:1026F00005E100BF00100140001401401F85EB51AF
:10270000D7F8FC300022C7F8A030C7F8A420D7E9DA
:10271000288942464B46911839625B417B62D7E972
:10272000082341465418494643EB01054FF0000287
:102730004FF00003EB0043EA5473E20014461D46D9
:102740004346E318C7F898304B4645EB0303C7F8F8
:102750009C30D7F8F4305B680022C7F89030C7F897
:1027600094204FF000024FF00003D7E9244529469A
:102770008B00214643EA917321468A00D7E926015E
:10278000FDF77EFD02460B46604BA3FB02235B096F
:102790001C01D7F8FC300022C7F88830C7F88C201D
:1027A000D7E9228942464B469118B9615B41FB61EA
:1027B000D7E9062341465118396149464B417B61AF
:1027C0004FF000024FF00003D7E904AB5946CB00AD
:1027D000514643EA51735146CA0010461946034612
:1027E00042469B18C7F880304B460A4642EB03032B
:1027F000C7F88430D7F8F4305B680022BB67FA670B
:102800004FF000024FF00003D7E91E8949468B00C4
:10281000414643EA917341468A00D7E92001FDF71A
:102820002FFD02460B46394BA3FB02135B096421C3
:1028300001FB03F3D31A1B013233344AA2FB0323F7
:102840005B0903F0F0031C44D7F8FC3000223B671F
:102850007A67D7E91C8942464B469118B9605B41BB
:10286000FB60D7E9022341465118396049464B4184
:102870007B604FF000024FF00003D7E900AB5946F0
:10288000CB00514643EA51735146CA0010461946DF
:10289000034642469B18BB664B460A4642EB03037F
:1028A000FB66D7F8F4305B6800223B667A664FF02F
:1028B00000024FF00003D7E9188949468B004146D2
:1028C00043EA917341468A00D7E91A01FDF7D8FC23
:1028D00002460B460D4BA3FB02135B09642101FB6F
:1028E00003F3D31A1B013233084AA2FB03235B090B
:1028F00003F00F02D7F8F4301B6822449A6000BF3F
:1029000007F58077BD46BDE8B08F00BF1F85EB514E
:10291000014B1868704700BF0C00002070B50D4DCA
:102920000D4C641BA4100026A64209D10B4D0C4C83
:1029300000F0AEFF641BA4100026A64205D170BDB6
:1029400055F8043B98470136EEE755F8043B9847A5
:102950000136F2E7A0390008A0390008A0390008C4
:10296000A439000802440346934200D1704703F89B
:10297000011BF9E70FB40A4B13B51C6824B1A36916
:1029800013B9204600F066F805AB049AA1680193DC
:10299000204600F0BDF902B0BDE8104004B0704719
:1029A0000C000020002310B50446C0E90033C0E944
:1029B0000433836081814366C281836119460822A2
:1029C0005C30FFF7CFFF054B6362054BA362054BFD
:1029D000E362054B2462236310BD00BFB9320008D7
:1029E000DB3200081333000837330008014900F0D8
:1029F000AFB800BF1136000870B568224D1E5543B0
:102A00000E4605F1740100F0E5F8044640B10021DE
:102A1000C0E900160C30A06005F16802FFF7A2FFC4
:102A2000204670BD014800F0B3B800BF710100201E
:102A3000014800F0AEB800BF71010020014800F06D
:102A4000A7B800BF72010020014800F0A2B800BF83
:102A50007201002010B50446FFF7F0FFA3691BB117
:102A6000BDE81040FFF7F0BFC4E912332365134BF4
:102A7000134A1B68A262A34204BF0123A36120463C
:102A800000F020F86060204600F01CF8A0602046AE
:102A900000F018F80022E06004216068FFF782FF70
:102AA000A06801220921FFF77DFFE06802221221C0
:102AB000FFF778FF0123A361D2E700BF00390008C8
:102AC000ED290008F8B50746FFF7ACFF1E4B1E685E
:102AD000B36913B93046FFF7BDFF4836D6E9013474
:102AE000013B03D533680BB33668F7E7B4F90C50F4
:102AF000D5B9164BE36004F15800656600F047F85D
:102B0000FFF796FFC4E90155C4E904552560A561A6
:102B10000822294604F15C00FFF724FFC4E90D55A3
:102B2000C4E912552046F8BD6834D9E70421384677
:102B3000FFF762FF044630600028D5D1FFF778FF29
:102B40000C233B60EEE700BF003900080100FFFFE7
:102B50002DE9F8430646884600F148040027D4E9E9
:102B60000195B9F1010905D52468002CF7D1384643
:102B7000BDE8F883AB89012B07D9B5F90E300133D5
:102B800003D029463046C04707436835E9E7704718
:102B90007047704770B50E4E0C463168054611B946
:102BA00000F07AFB30602146284600F075FB431C9C
:102BB0000AD0C41C24F00304A04207D0211A2846DE
:102BC00000F06AFB013001D14FF0FF34204670BDA8
:102BD000780100202DE9F041CD1C25F003050835D2
:102BE0000C2D38BF0C25002D074601DBA94205D965
:102BF0000C233B6000263046BDE8F0812E4E00F0ED
:102C0000BBFD33681C4634BB29463846FFF7C2FF7C
:102C1000431C04464DD134682646002E40D123681B
:102C20003146384604EB030800F036FB80453AD1C4
:102C3000216803356D1A25F0030508350C2D38BFC2
:102C40000C2529463846FFF7A5FF01302BD0236815
:102C50002B4423600EE02268521B1ED40B2A16D987
:102C60006119A342256018BF5960636808BF3160CD
:102C700062514B60384604F10B0600F083FD26F0EC
:102C80000706231DF21AB6D09B1BA350B3E7626858
:102C9000A3420CBF32605A60ECE723466468B2E797
:102CA00034467668B9E70C233B60384600F06AFD8D
:102CB000A1E72560DEE700BF740100209368013BB7
:102CC000002B10B4936008DA9469A34201DB0A294F
:102CD00003D15DF8044B00F033BB1368581C10603F
:102CE000197008465DF8044B7047F8B506460F4664
:102CF0001446D518AC4201D1002007E014F8011B9E
:102D00003A463046FFF7DAFF431CF3D1F8BD000026
:102D10002DE9F04F0D469DB014469846064618B171
:102D200083690BB9FFF796FE894B9D421BD17568ED
:102D30006B6ED90705D4AB899A0502D4A86DFFF74D
:102D400027FFAB891B0701D52B69EBB92946304614
:102D500000F05AFBC0B16B6EDC070ED54FF0FF30B0
:102D60001DB0BDE8F08F7B4B9D4201D1B568DFE718
:102D7000794B9D4208BFF568DAE7AB899805EDD439
:102D8000A86DFFF706FFE9E70023099320238DF8DC
:102D90002930CDF80C803023DFF8C0818DF82A303F
:102DA0004FF0010923469A4613F8012B0AB1252A50
:102DB000F9D1BAEB040B0BD05B46224629463046CC
:102DC000FFF793FF013000F0AA80099A5A44099254
:102DD0009AF80030002B00F0A28000234FF0FF3261
:102DE000CDE905230AF1010A049307938DF85330C6
:102DF0001A935446052214F8011B5848FDF7F0F9C0
:102E0000049AD8B9D10644BF20238DF85330130754
:102E100044BF2B238DF853309AF800302A2B15D05D
:102E2000079A544600204FF00A0C214611F8013B46
:102E3000303B092B4ED9B0B1079214E0A0EB080348
:102E400009FA03F313430493A246D2E7039B191D27
:102E50001B680391002BBBBF5B4242F00202079349
:102E60000793B8BF049223782E2B0CD163782A2BBA
:102E700035D1039B1A1D1B680392002BB8BF4FF07E
:102E8000FF3302340593DFF8E4A021780322504693
:102E9000FDF7A6F940B14023A0EB0A0003FA00F0C9
:102EA000049B03430134049314F8011B2C488DF850
:102EB00028100622FDF794F900283FD0294B1BBBB0
:102EC000039B073323F0070308330393099B3B4419
:102ED000099367E70CFB02320C460120A5E70023AB
:102EE0000134059319464FF00A0C204610F8012BC7
:102EF000303A092A03D9002BC5D00591C3E70CFB52
:102F0000012104460123F0E703AB00932A46164B48
:102F100004A93046AFF300800746781CD6D16B6E0B
:102F2000D90705D4AB899A0502D4A86DFFF731FE05
:102F3000AB895B063FF512AF099811E703AB00932D
:102F40002A46094B04A9304600F080F8E4E700BFA8
:102F5000243900084439000804390008643900089D
:102F60006E39000800000000EB2C00086A390008E8
:102F70002DE9F047164699468A680B69DDF82080EE
:102F80009342B8BF1346336091F8432007460C467E
:102F90000AB1013333602368990642BF33680233B4
:102FA0003360256815F0060506D104F1190AE368B7
:102FB00032689B1AAB4226DC94F84320131E226829
:102FC00018BF012392062BD404F143024946384628
:102FD000C04701301ED02368E568326803F006035D
:102FE000042B08BFAD1AA36822690CBF25EAE5755A
:102FF00000259342C4BF9B1AED1800261A34B5422F
:103000001AD1002008E00123524649463846C047FD
:10301000013003D14FF0FF30BDE8F0870135C6E73E
:10302000E1185A1C302081F84300224494F84510DE
:1030300082F843100233C7E7012322464946384647
:10304000C0470130E6D00136D9E700002DE9FF473F
:103050000F7E0C9D782F914680460C469A4601F1D2
:10306000430207D8622F0AD8002F00F0D880582FCB
:1030700000F0A38004F1420584F842703AE0A7F121
:103080006303152BF6D801A151F823F0E5300008B1
:10309000F9300008753000087530000875300008F8
:1030A00075300008F93000087530000875300008E8
:1030B0007530000875300008053200082931000815
:1030C000E731000875300008753000082732000825
:1030D0007530000829310008753000087530000887
:1030E000EF3100082B681A1D1B682A6004F14205A5
:1030F00084F842300123A3E020682968060601F124
:1031000004030AD50E682B60002E03DA2D237642C5
:1031100084F843305E480A2319E00E682B6010F0F3
:10312000400F18BF36B2EFE72B682068191D2960E1
:10313000010601D51E6802E04606FBD51E885448EC
:103140006F2F0CBF08230A23002184F84310656801
:10315000A560002DA2BF216821F0040121600EB9F5
:10316000002D4DD01546B6FBF3F103FB1167C75D8B
:1031700005F8017D3746BB420E46F4D9082B0BD12A
:103180002368DE0708D5236961689942DEBF3023D2
:1031900005F8013C05F1FF35521B2261CDF800A076
:1031A0004B4603AA21464046FFF7E2FE01304CD1D0
:1031B0004FF0FF3004B0BDE8F087354881F8457026
:1031C0002968236851F8046B29601D0614D5DF07B0
:1031D00044BF43F0200323601EB9236823F020037B
:1031E00023601023B0E7236843F020032360782393
:1031F000284884F84530E3E7590648BFB6B2E6E709
:103200001546BBE72B6826686169181D28603506DE
:103210001B6801D5196002E07006FBD519800023F8
:1032200023611546BAE72B681A1D2A601D6862687B
:1032300000212846FCF7D4FF08B1401B606063689A
:103240002361002384F84330A8E723692A464946CE
:103250004046D0470130ABD023689B0713D4E068C9
:10326000039B9842B8BF1846A4E70123324649465B
:103270004046D04701309BD00135E36803995B1A83
:10328000AB42F2DCEBE7002504F11906F5E700BFDD
:10329000753900088639000838B5064D0023044604
:1032A00008462B60FDF7A8FC431C02D12B6803B134
:1032B000236038BD7C01002010B50C46B1F90E101A
:1032C00000F0B2FA0028ABBF636DA3891B1823F48A
:1032D0008053ACBF6365A38110BD2DE9F0411F464B
:1032E0008B89DB0505460C46164605D5B1F90E104F
:1032F0000223002200F0C8F9A389B4F90E1023F4C8
:103300008053A38132463B462846BDE8F04100F099
:1033100069B810B50C46B1F90E1000F0B5F9431CB0
:10332000A38915BF606523F4805343F48053A381C0
:1033300018BFA38110BDB1F90E1000F0D3B8000082
:10334000F8B50E461446054618B183690BB9FFF768
:1033500081FB214B9C422BD16C68A369A360A3899C
:103360001A072FD523696BB323692068C01A6369D4
:10337000F6B28342374604DC2146284600F048F97D
:1033800030BBA368013BA36023685A1C22601E70F7
:1033900063690130834204D0A389DB0706D50A2E76
:1033A00004D12146284600F033F988B93846F8BDE3
:1033B0000A4B9C4201D1AC68CFE7094B9C4208BF45
:1033C000EC68CAE72146284600F01EF80028CBD05A
:1033D0004FF0FF37EAE700BF2439000844390008FE
:1033E0000439000838B5074D044608461146002246
:1033F0002A601A46FDF7AFFB431C02D12B6803B1CC
:10340000236038BD7C010020324B70B51D68064634
:103410000C4625B1AB6913B92846FFF71BFB2E4BB1
:103420009C420FD16C68A389B4F90C2019072CD4E5
:10343000DD0611D40923336042F04003A3814FF02D
:10344000FF303EE0254B9C4201D1AC68EBE7244BBA
:103450009C4208BFEC68E6E7580712D5616B41B1A2
:1034600004F14403994202D0304600F091F9002360
:103470006363A38923F02403A3810023636023698A
:103480002360A38943F00803A38123694BB9A3896F
:1034900003F42073B3F5007F03D02146304600F0DB
:1034A0002BF9A089B4F90C2010F001030AD00023F5
:1034B000A36063695B42A361236943B910F0800094
:1034C000BAD170BD810758BF6369A360F4E70020DB
:1034D000F7E700BF0C000020243900084439000839
:1034E0000439000838B5064D0023044608462B6011
:1034F000FDF74DFB431C02D12B6803B1236038BD9F
:103500007C0100208A892DE9F041054610070C4610
:1035100058D44B68002B05DC0B6C002B02DC002020
:10352000BDE8F081E66A002EF9D0002312F4805243
:103530002F682B6032D0606DA3895A0705D5636868
:10354000C01A636B0BB1236CC01A00230246E66AF3
:10355000216A2846B047431CA38906D129681D2942
:103560002CD82A4ACA40D60728D500226260D9043E
:103570002269226004D5421C01D12B6803B9606521
:10358000616B2F600029CAD004F14403994202D034
:10359000284600F0FDF800206063C1E7216A01239E
:1035A0002846B047411CC7D12B68002BC4D01D2B27
:1035B00001D0162B01D12F60B1E7A38943F040035E
:1035C000A381ADE70F69002FA9D093070E6808BF4C
:1035D0004B690F6018BF0023A6EB07088B60B8F19A
:1035E000000F9CDD216AA66A43463A462846B0474A
:1035F000002806DCA38943F04003A3814FF0FF308D
:103600008EE70744A8EB0008E9E700BF010040206F
:1036100038B50B6905460C4613B90025284638BD58
:1036200018B183690BB9FFF715FA144B9C421BD1F3
:103630006C68B4F90C30002BEFD0626ED00704D464
:10364000990502D4A06DFFF7A3FA28462146FFF79B
:1036500059FF636EDA070546E0D4A3899B05DDD4E4
:10366000A06DFFF796FAD9E7054B9C4201D1AC68F3
:10367000DFE7044B9C4208BFEC68DAE72439000816
:10368000443900080439000838B5074D0446084697
:10369000114600222A601A46FDF7A0FA431C02D107
:1036A0002B6803B1236038BD7C01002070B50E4645
:1036B000B1F90E10002996B014461D4608DAB6F985
:1036C0000C3000222A601A0610D44FF480630EE0FA
:1036D0006A4600F0BBF80028F1DB019A02F4704260
:1036E000A2F500535A425A412A60EEE740230020D7
:1036F000236016B070BD00008B8973B59D07064628
:103700000C4607D504F1470323602361012363615D
:1037100002B070BD01AB6A46FFF7C8FF00990546CD
:103720003046FFF757FA48B9B4F90C309A05EFD490
:1037300023F0030343F00203A381E3E70D4BB362DD
:10374000A389206043F08003A381009B6361019BF8
:1037500020615BB1B4F90E10304600F089F828B151
:10376000A38923F0030343F00103A381A089054348
:10377000A581CDE7ED2900080148FFF709BA00BF90
:10378000700100200148FFF704BA00BF700100205B
:1037900037B5002944D051F8043C0190002BA1F129
:1037A0000404B8BFE418FFF7E7FF1E4A0198136846
:1037B00033B96360146003B0BDE83040FFF7E2BF87
:1037C000A34208D9256861198B4201BF19685B685B
:1037D00049192160EDE71A465B680BB1A342FAD99B
:1037E00011685518A5420BD1246821445418A342EE
:1037F0001160E0D11C685B68536021441160DAE716
:1038000002D90C230360D6E7256861198B4204BFF7
:1038100019685B68636004BF491921605460CAE796
:1038200003B030BD7401002038B5074D044608468A
:10383000114600222A601A46FDF770F9431C02D196
:103840002B6803B1236038BD7C01002038B5074DDB
:1038500000230446084611462B60FDF7A4F9431CDB
:1038600002D12B6803B1236038BD00BF7C0100206A
:1038700038B5064D0023044608462B60FDF7A3F932
:10388000431C02D12B6803B1236038BD7C010020AA
:10389000F8B500BFF8BC08BC9E467047F8B500BF3D
:0838A000F8BC08BC9E4670470D
:1038A800496E696369616D6F7320656C205363614C
:1038B8006E656F203A440A0D000000002D0A0D00C5
:1038C800307825580A0D00005363616E656F2043F8
:1038D8006F6D706C657461646F2042290A0D000079
:1038E80000000000000000000102030406070809A8
:1038F8000000000001020304100000200000000086
:1039080000000000000000000000000000000000AF
:10391800000000000000000000000000000000009F
:10392800000000000000000000000000000000008F
:10393800000000000000000000000000000000007F
:10394800000000000000000000000000000000006F
:10395800000000000000000000000000232D302BB4
:103968002000686C4C006566674546470030313278
:1039780033343536373839414243444546003031CF
:10398800323334353637383961626364656600002E
:0839980018C9FF7F01000000C7
:0439A000C501000855
:0439A400A101000875
:1039A8000024F400100000000100000010000020B6
:1039B80000000000243900084439000804390008D0
:1039C80000000000000000000000000000000000EF
:1039D80000000000000000000000000000000000DF
:1039E80000000000000000000000000000000000CF
:1039F80000000000000000000000000000000000BF
:103A080000000000000000000000000000000000AE
:0400000508000C895A
:00000001FF
